:020000041FFFDC
:10000000F8FF00201104FF1F851BFF1F851BFF1F2A
:10001000851BFF1F851BFF1F851BFF1F851BFF1FE8
:10002000851BFF1F851BFF1F851BFF1F851BFF1FD8
:10003000851BFF1F851BFF1F851BFF1F851BFF1FC8
:10004000851BFF1F851BFF1F851BFF1F851BFF1FB8
:10040000FFFFFFFFFFFFFFFFFFFFFFFFFEFFFFFFFD
:1004100062B64FF000004FF000014FF000024FF0C5
:1004200000034FF000044FF000054FF000064FF0BE
:1004300000074FF000084FF000094FF0000A4FF09E
:10044000000B4FF0000C00F0BFFAFEE770B504009F
:100450000D0016003068012802D0022805D00AE0FD
:100460002000C0B27168884705E0B0680470B068C9
:10047000401CB060FFE72868401C286070BD2DE973
:10048000F04704005FF0000A5046A1465FF0000A02
:1004900089F800A019F10109002A1FD0D1F800A0A5
:1004A0005546002D05D15FF0300A89F800A0401CA8
:1004B00038E0002D36D095FBF3FA564603FB165A6A
:1004C0005746002F02D5FF43313700E03037350063
:1004D00089F8007019F10109401CEAE7D1F800A081
:1004E000D446BCF1000F05D15FF0300A89F800A0B6
:1004F000401C17E0BCF1000F14D0BCFBF3FAD64649
:1005000003FB1ECAD046B8F10A0F02D218F1300818
:1005100001E018F13708F44689F8008019F1010963
:10052000401CE7E7BDE8F0872DE9F04104000D002D
:1005300016001F00A046A84507DA3A003100302017
:10054000FFF784FF18F10108F5E7BDE8F0812DE918
:10055000F04104000D0016001F00A046A84507DA70
:100560003A0031002020FFF771FF18F10108F5E78C
:10057000BDE8F0812DE9F24F92B004001500002093
:100580000090129883469BF800000590002800F028
:10059000F2810598252813D005980A2805D0220055
:1005A00000A90598FFF752FF09E0220000A90D20DD
:1005B000FFF74CFF220000A90A20FFF747FFD7E111
:1005C00000208146002003900398002822D11BF1CF
:1005D000010B9BF8000020280ED0232812D02B28D6
:1005E00007D02D2802D0302809D00EE059F001099B
:1005F000EAE759F00209E7E759F00409E4E759F09E
:100600000809E1E759F01009DEE7BBF1010B012011
:100610000390D9E700208246002003900398002829
:1006200013D11BF1010B9BF800000590303809280D
:1006300006D80A20059900FB0A10B0F1300AEDE750
:10064000BBF1010B01200390E8E71BF1010B9BF8C4
:1006500000002E2811D100200390039800280ED10D
:100660001BF1010B9BF800003038092800D8F4E793
:10067000BBF1010B01200390EFE7BBF1010B1BF174
:10068000010B9BF800004C2806D0682802D06C288B
:1006900001D002E003E002E001E0BBF1010B1BF13D
:1006A000010B9BF800000590582875D0622800F0D7
:1006B000D580632800F01D81642813D0692811D0EB
:1006C0006E2800F049816F2800F0BD80702800F08E
:1006D000D080732800F01681752800F0D580782826
:1006E0005AD040E1286806902D1D0A23012206A950
:1006F00009A8FFF7C4FE070009A8381806000698E5
:10070000002803D52D2002907F1C0FE0484680076B
:1007100003D52B2002907F1C08E04846400703D5F4
:10072000202002907F1C01E0002002900020049015
:100730004846000711D50298002804D0220000A9DD
:100740000298FFF783FE01200490230000AA51467F
:100750003800FFF7E9FE574612E04846C0070FD4BD
:10076000230000AA51463800FFF7F1FE0298002846
:1007700004D0220000A90298FFF768FE012004902F
:100780000498002807D10298002804D0220000A96C
:100790000298FFF75BFE98E0286801902D1D10235A
:1007A000002201A909A8FFF76AFE070009A8381866
:1007B0000600002004904846000716D54846C006AB
:1007C0000BD5220000A93020FFF740FE220000A92F
:1007D0007820FFF73BFE01200490230000AA514639
:1007E0003800FFF7A1FE57461BE04846C00718D463
:1007F0004846C00600D5BF1C230000AA5146380059
:10080000FFF7A5FE4846C0060BD5220000A9302000
:10081000FFF71CFE220000A97820FFF717FE012039
:1008200004904846C0060DD5049800280AD122003D
:1008300000A93020FFF70AFE220000A97820FFF768
:1008400005FEBF1C41E0286801902D1D08230022F1
:1008500001A909A8FFF713FE07001FE0286801900F
:100860002D1D0223002201A909A8FFF708FE070099
:1008700014E0286801902D1D1023002201A909A869
:10088000FFF7FDFD070009E0286801902D1D0A23F0
:10089000002201A909A8FFF7F2FD070009A83818EE
:1008A00006004846000707D5230000AA5146380035
:1008B000FFF73AFE574608E04846C00705D4230034
:1008C00000AA51463800FFF742FE3078002806D0D3
:1008D000220000A93078FFF7B9FD761EF5E74846FB
:1008E000C00705D5230000AA51463800FFF72FFEA8
:1008F0003EE0287807902D1D220000A90798FFF7F9
:10090000A5FD35E0286880462D1DB8F1000F22D0E6
:10091000404600F049F807004846C00705D42300C8
:1009200000AA51463800FFF712FE98F80000002890
:1009300008D0220000A998F80000FFF787FD18F101
:100940000108F2E74846C00705D5230000AA514632
:100950003800FFF7FCFD0BE0286808902D1D089873
:100960000099016004E0220000A90598FFF76EFDE0
:100970001BF1010B07E6009813B0BDE8F08F0EB431
:100980007EB50400012000900648019007A80500EC
:100990002A00210000A8FFF7EDFD060030007EBC14
:1009A0005DF810FBAD1EFF1F01000A000023002AA6
:1009B00001D1002007E01000421C0078002801D07F
:1009C0005B1CF8E71800704780B500F08DFA00F066
:1009D000A7FA00F005FBDFF8E803FFF7D0FFDFF828
:1009E000E4030068DFF8E0134979491CB0FBF1F03B
:1009F0000090DFF8D0030068DFF8CC130979491CB8
:100A0000B0FBF1F3DFF8BC030068DFF8BC13C97872
:100A1000491CB0FBF1F2DFF8AC030168DFF8AC036E
:100A2000FFF7ADFFDFF8A8030078400703D5DFF834
:100A3000A403FFF7A4FFDFF898030078800703D52D
:100A4000DFF89403FFF79BFFDFF884030078C0070B
:100A500003D5DFF88803FFF792FFDFF884030078FF
:100A6000000603D5DFF87C03FFF789FFDFF870038A
:100A70000078400603D5DFF87003FFF780FFDFF84A
:100A800060030078800603D5DFF86003FFF777FF87
:100A9000DFF84C030078400703D5DFF85403FFF775
:100AA0006EFFDFF83C030078800703D5DFF84403CE
:100AB000FFF765FFDFF828030078C00703D5DFF8EC
:100AC0003803FFF75CFFDFF83403FFF758FFDFF868
:100AD0003003DFF83013884204D0DFF82C03FFF72F
:100AE0004EFF03E0DFF82403FFF749FF00F003F8AF
:100AF00000F0A4FAFEE780B5DFF8140300680009EF
:100B000010F0070000280BD0022813D00DD30428C2
:100B100019D014D306281ED019D307281FD022E0DD
:100B2000DFF8F002FFF72BFF20E0DFF8EC02FFF721
:100B300026FF1BE0DFF8E402FFF721FF16E0B848CC
:100B4000FFF71DFF12E0B748FFF719FF0EE0B648A8
:100B5000FFF715FF0AE0B548FFF711FF06E0B448BC
:100B6000FFF70DFF02E0B348FFF709FFA848006850
:100B700010F00F00022812D0042814D0052816D037
:100B8000062818D007281AD008281CD009281ED0FB
:100B90000A2820D00C2822D00E2824D027E0A648EE
:100BA000FFF7EDFE26E0A548FFF7E9FE22E0A448A6
:100BB000FFF7E5FE1EE0A348FFF7E1FE1AE0A248BA
:100BC000FFF7DDFE16E0A148FFF7D9FE12E0A048CE
:100BD000FFF7D5FE0EE09F48FFF7D1FE0AE09E48E2
:100BE000FFF7CDFE06E09D48FFF7C9FE02E09C48F6
:100BF000FFF7C5FE86480068000B10F00F000028C4
:100C000003D0022809D004D30BE09648FFF7B7FEC3
:100C10000AE09548FFF7B3FE06E09448FFF7AFFE01
:100C200002E09348FFF7ABFE00F06AF891480068D5
:100C3000000E10F00F00072806D0092808D00B2856
:100C40000AD00F280CD00FE08B48FFF798FE0EE07B
:100C50008A48FFF794FE0AE08948FFF790FE06E015
:100C60008748FFF78CFE02E08648FFF788FE86483B
:100C70000068000203D58548FFF781FE1EE07D482D
:100C80000068000F002806D0072808D009280AD0DD
:100C90000F280CD00FE07E48FFF771FE0EE07D4874
:100CA000FFF76DFE0AE07C48FFF769FE06E07A4830
:100CB000FFF765FE02E07948FFF761FE78480068BB
:100CC000000B10F00F00052806D0072808D00828D0
:100CD0000AD009280CD00FE07248FFF750FE0EE052
:100CE0007148FFF74CFE0AE07048FFF748FE06E047
:100CF0006F48FFF744FE02E06E48FFF740FE01BD7B
:100D0000F8B56D48032101706C48002101706C48F2
:100D1000002101706B48002101706B4801210170B6
:100D20006A4880210170694800780006FBD5684850
:100D300000780400674800780500674800780600DE
:100D4000664800780700FFB20097F6B23300EDB2B4
:100D50002A00E4B221006248FFF711FE5648032141
:100D60000170564800210170554800210170554816
:100D70000421017054480121017054488021017000
:100D8000524800780006FBD55148007804005148CD
:100D900000780500504800780600504800780700A9
:100DA000FFB20097F6B23300EDB22A00E4B22100A0
:100DB0004C48FFF7E4FD4548FF210170F1BD0000FC
:100DC000E41AFF1FE01FFF1FBC1FFF1FD818FF1FE3
:100DD00000E00740DC1DFF1FC01BFF1FC81EFF1FD8
:100DE00001E00740EC1DFF1F2C1DFF1F2C1CFF1FE7
:100DF000441CFF1FDC1BFF1FD41EFF1F041BFF1F13
:100E00000000FF1F0000FF1FE01EFF1FEC1EFF1F62
:100E100024800440041FFF1F0C1FFF1F141FFF1F0F
:100E20001C1FFF1F241FFF1F2C1FFF1F341FFF1F2E
:100E30003C1FFF1F601AFF1FFC1DFF1F0C1EFF1F22
:100E40001C1EFF1F2C1EFF1F3C1EFF1F4C1EFF1FE2
:100E50005C1EFF1F6C1EFF1F7C1EFF1F8C1EFF1FD2
:100E6000081AFF1F401DFF1F541DFF1F681DFF1F95
:100E70006819FF1F4C8004405C1CFF1F741CFF1F7F
:100E80008C1CFF1F241BFF1F508004409C1EFF1F53
:100E9000A41CFF1FBC1CFF1FD41CFF1F441BFF1FF3
:100EA000007004407C1DFF1F901DFF1FA41DFF1F2D
:100EB000B81DFF1FF81BFF1F07000240060002407D
:100EC00005000240040002400F0002400000024002
:100ED0000B0002400A0002400900024008000240E4
:100EE000881AFF1F641BFF1F80B500F009F80A482D
:100EF00000884FF6FE7108400749088001BD0000D8
:100F000072B606484CF22051018004484DF6281173
:100F1000018062B670470000002005400E200540A9
:100F20002DE9F8432448254988420DD00020804609
:100F3000B8F5826F08D22048204951F8281040F8AF
:100F4000281018F10108F3E71B4800F0A3F81C482B
:100F500007001C4806001C480400A01B80464046B1
:100F6000B0F10108002804D030783870761C7F1C5E
:100F7000F5E71648814616480500B5EB090080469E
:100F80004046B0F10108002805D0002089F8000093
:100F900019F10109F4E70F480F49104A531A98460E
:100FA0004346B3F10108002B04D00B780370491CB1
:100FB000401CF5E7BDE8F1830000FF1F0000FF1FA4
:100FC000941FFF1F2019FF1F6819FF1FDC1FFF1F41
:100FD000E81FFF1F441FFF1F3C18FF1F8C18FF1F37
:100FE00080B51148006850F478500F490860C82057
:100FF00000F056F80D4908600C4800684FF47A710B
:1010000048430B4908600A4800680A490968C1F367
:101010000361491CB0FBF1F0074908604FF49641A9
:10102000012000F0B7F901BD38800440E01FFF1F28
:10103000DC1FFF1F44800440E41FFF1F80B54FF4F6
:101040009641012000F0A6F90D48FFF798FC0D48E5
:10105000FFF795FC4621012000F073FA0B220A49A4
:10106000012000F07BFA0949012000F088FA0848C5
:10107000FFF785FC4FF4FA7000F0B2FAEAE700BF20
:10108000CC1DFF1FA41BFF1FBC1EFF1F141CFF1F36
:10109000A819FF1F014908607047000008ED00E033
:1010A00038B50400E4B2002C00F00681E4B2200060
:1010B00030281ED0322823D0602828D064282DD094
:1010C0006E2832D0782837D07D283CD0822841D075
:1010D0008C2846D096284BD0A02850D0AA2855D08E
:1010E000B4285AD0C8285FD0E12864D0FA2869D043
:1010F0006FE0A048182101709E48002141706CE00B
:101100009C48182101709B480121417065E0994875
:10111000182101709748182141705EE09548182108
:10112000017094481A21417057E0924818210170CB
:1011300090481F21417050E08E48132101708D4866
:101140001821417049E08B481321017089481A2108
:10115000417042E087481321017086481C2141708C
:101160003BE084480E21017082481221417034E036
:1011700080480E2101707F48152141702DE07D4887
:101180000E2101707B481821417026E079480E211C
:10119000017078481B2141701FE076480E210170D4
:1011A00074481E21417018E072480C21017071488A
:1011B0001C21417011E06F480B2101706D481E2108
:1011C00041700AE06B480A2101706A481F21417092
:1011D00003E06420FFF764FFCAE0664800218170E5
:1011E000E4B2332C03D263480021C17017E0E4B2AB
:1011F000652C03D25F480121C17010E0E4B2972C46
:1012000003D25C480221C17009E0E4B2C92C03D2C8
:1012100058480321C17002E056480F21C17055485B
:101220005449C9780171E4B21A2C03D25148002103
:10123000417141E0E4B2332C03D24E4801214171A7
:101240003AE0E4B24C2C03D24A480221417133E027
:10125000E4B2652C03D24748032141712CE0E4B28B
:101260007E2C03D243480421417125E0E4B2972C3F
:1012700003D24048052141711EE0E4B2B02C03D2F4
:101280003C480621417117E0E4B2C92C03D2394829
:101290000721417110E0E4B2E22C03D23548082165
:1012A000417109E0E4B2FB2C03D2324809214171BB
:1012B00002E030480F2141712E484078183080B24A
:1012C000322148432B490978491C89B290FBF1F03F
:1012D00005002948002101702848006850F080501E
:1012E000264908602648007850F08000244908709C
:1012F00024489821017024480078C006FBD4224875
:101300000078C0F38100C0B20228F8D119480078F3
:1013100010F01F001D4908701D480021017015487C
:101320004379144802791348C1781248807800F054
:1013300009FE1048407810F01F0050F0400014499A
:101340000870114800788006FBD50F4800784006E9
:10135000FBD50C48007810F03F000A4908700A4895
:101360000078C0F38100C0B20328F8D12800C0B2D1
:1013700032BD00BFBC1FFF1F014006403480044047
:1013800008C00740004006400640064004400640B2
:1013900005400640F0B4C0B2002808D0022824D08E
:1013A00014D304283FD02FD305284BD059E07B4ECF
:1013B0004FF4407737607A4E4FF440773760794E7C
:1013C000366856F48066774F3E604AE0764E4FF4BA
:1013D00040773760754E4FF440773760714E36680E
:1013E00056F400666F4F3E603BE0714E4FF440771D
:1013F0003760704E4FF4407737606A4E366856F467
:101400008056684F3E602CE06B4E4FF4407737605B
:101410006A4E4FF440773760624E366856F4005695
:10142000604F3E601DE0664E4FF440773760654E7A
:101430004FF440773760644E366856F48066624FEA
:101440003E600EE0614E4FF440773760604E4FF4DF
:10145000407737605C4E366856F400665A4F3E60FF
:10146000FFE7C0B25B4E56F82060F67816F0F30640
:10147000C0B2584F57F82070FE70C0B2554E56F8A3
:1014800020600027B770C0B2002801D1012600E01B
:101490000026C0B2012801D1012700E000273E4309
:1014A000F6B2002E06D04C4E36684FF47A777E4363
:1014B000350005E0494E36684FF47A777E433500B3
:1014C0000E01B5FBF6F63200C0B2424E56F820606F
:1014D000367816F0E006340092B2160A16F01F06AF
:1014E0002643C0B23B4F57F820703E70C0B2394E11
:1014F00056F8206072706E010F01B6FBF7F692B2DB
:10150000B6EB42163300C0B2324E56F82060B67ABF
:1015100016F0E0063400C0B22E4E56F8206013F0EC
:101520001F072743B772C0B22A4E56F82060F678DC
:1015300056F00C06C0B2274F57F82070FE70F0BC72
:101540007047C0B2234A52F8202012791206F8D50B
:10155000C0B2204A52F82020D1717047F8B504007B
:101560000D00160000200700B6B2B74206DA795D1A
:101570002000C0B2FFF7E5FF7F1CF5E7F1BD38B5ED
:1015800004000D002878002806D029782000C0B279
:10159000FFF7D7FF6D1CF5E731BD000018C0044010
:1015A0001CC00440348004400CB0044010B004401F
:1015B0000CC0044008C0044040B0044044B00440A3
:1015C00064D0044060D004402880044024D004400B
:1015D00020D00440C41FFF1FDC1FFF1FE41FFF1F9C
:1015E0000D49096851F001010B4A11600C4908606E
:1015F0000C4905220A600949096851F00101074AAE
:101600001160064909680906FBD5044909684908BB
:101610004900024A116070473880044000000440CD
:101620000800044004000440F8B504000D00160052
:101630001F00EDB2202D02D2FFB2022F03D32421CE
:10164000274800F053F8EDB2E4B2264850F82400E1
:10165000F6B24FF48071314340F82510F00705D5FC
:10166000F6B2032E02D0F6B2132E0DD1E4B21E480C
:1016700050F8240040690121A9408843E4B21A4986
:1016800051F8241048612AE0E4B2174850F82400C9
:1016900040690121A9400843E4B2134951F82410DC
:1016A0004861FFB2012F0DD1E4B20F4850F8240079
:1016B00000680121A9400843E4B20B4951F8241005
:1016C00008600CE0E4B2084850F8240000680121EA
:1016D000A9408843E4B2044951F824100860F1BDE0
:1016E000E417FF1FA81FFF1F941FFF1F38B504003A
:1016F0000D0000F00BF82A0021000348FFF73FF926
:1017000000F02DF8F7E700BF8C18FF1F80B501230C
:1017100001220C210320FFF787FF012301220D2165
:101720000320FFF781FF012301220E210320FFF791
:101730007BFF012301220F210320FFF775FF01BD6D
:101740001E4AD2681268012383409A43C9B211F03D
:10175000010383401A43194BDB681A60704710B5C8
:10176000012301220C210320FFF75EFF0123012248
:101770000D210320FFF758FF012301220E21032032
:10178000FFF752FF012301220F210320FFF74CFF37
:101790000C200400E4B2102C0ED200212000C0B2B4
:1017A000FFF7CEFF642000F00BF801212000C0B24B
:1017B000FFF7C6FF641CEDE710BD0000941FFF1F7C
:1017C00000231900814209D2054B1B681A00002A28
:1017D00002D000BF521EFAE7491CF3E77047000031
:1017E000E41FFF1F453A5C776F726B5CB7C9CBBCD7
:1017F000BFA8B6FB5C4B363020BFAAB7A25C6B36E5
:10180000305CB5D7B2E320322E305C666972655F1A
:101810004B696E657469735FB4FAC2EB56322E324F
:101820005C7372635C647269766572735C6770691D
:101830006F5C6770696F2E6300000000F0B4114E9A
:10184000366834000F4E366856F47F060D4F3E6002
:101850000E0616F0706656EA0076170517F4700744
:101860003E431F0417F470273E43074F3E60002697
:101870003500EDB29D4201D26D1CFAE7014E346095
:10188000F0BC704700F0014044800440B6CFD1D492
:10189000B7A2C9FAD4DA2573CEC4BCFEB5C4B5DA92
:1018A0002564D0D0A3A10AB6CFD1D4CCF5BCFEB26A
:1018B000BBB3C9C1A2A3ACC7EBBCECB2E2B4EDCEE2
:1018C000F3D4ADD2F2A1A309A1AAA1AA20627920E2
:1018D000D2B0BBF00A0A0000C4DABACBC6B5C2CA9D
:1018E000A3BA25644D487A09D7DCCFDFC6B5C2CA92
:1018F00020A3BA25644D487A0A666C6578C6B5C2DD
:10190000CAA3BA25644D487A2009666C617368C61B
:10191000B5C2CAA3BA25644D487A0A0A000000007D
:1019200000F00F4040F00F4080F00F40C0F00F403B
:1019300000F10F400090044000A0044000B00440BB
:1019400000C0044000D004400B1F0000000900004C
:1019500000A0064000B0064000C0064000D006408F
:1019600000A00E4000B00E400A54686973207665EE
:101970007273696F6E206F6620736F667477617221
:101980006520646F65736E2774207265636F676E80
:10199000697A6520746865207265766973696F6E0F
:1019A00020636F64652E00000A2D2D2D2D2D2D2D09
:1019B0002D2D2D2D2D2DD2B0BBF06B696E65746968
:1019C00073BFAAB7A2B0E52D2D2D2D2D2D2D2D2DB8
:1019D0002D2D2D2D0A0A00000A2A2A2A2A6465665E
:1019E00061756C745F69737220656E74657265648D
:1019F000206F6E20766563746F722025642A2A2A10
:101A00002A2A0D0A0A0000000A556E7265636F6784
:101A10006E697A6564204B696E65746973207061C4
:101A2000636B61676520636F64652E202020202032
:101A30002000000010B5084979441C31074C7C4453
:101A40001A34A14206D0081D0A6851188847014679
:101A5000A142F8D110BD00BF7C000000880000004A
:101A60000A556E7265636F676E697A6564204B69AB
:101A70006E657469732066616D696C792064657642
:101A80006963652E0A000000466C6173682070610E
:101A900072616D657465722076657273696F6E2010
:101AA00025642E25642E25642E25640A000000007E
:101AB00050F8041B61B150F8042BD30744BFA9F1BF
:101AC00001039A18002342F8043B091FFAD1EFE7FB
:101AD00070470000DDFFFFFF0C000000DC1FFF1F50
:101AE000000000000A0A0909D2B0BBF06B696E65FC
:101AF000746973BACBD0C4B0E5B2E2CAD4B3CCD067
:101B0000F20A00000AD2B0BBF04B696E65746973CB
:101B1000BFAAB7A2B0E5C6F4B6AFB7BDCABDA3BAF7
:101B200000000000455252212120556E646566690F
:101B30006E656420502D666C6173682073697A65E8
:101B40000A000000455252212120556E64656669E5
:101B50006E656420466C65784E564D2073697A65D3
:101B60000A000000466C6173682076657273696FC5
:101B70006E2049442025642E25642E25642E25647C
:101B80000A00000080B5FFF7C1FDFFF7E8FD03483C
:101B90000178C9B20248FEF7F2FE01BD04ED00E093
:101BA000D819FF1F0909A1AAA1AAD2B0BBF06B697D
:101BB0006E65746973BFAAB7A2B0E50A0A00000097
:101BC000436F7265204C6F636B7570204576656E50
:101BD000742052657365740A000000004C6F772D05
:101BE000766F6C7461676520446574656374205218
:101BF000657365740A000000455252212120556E1C
:101C0000646566696E65642052414D2073697A652A
:101C10000A0A0000756172745F737472BAAFCAFD0C
:101C2000B7A2CBCDCAFDBEDD0000000057617463D2
:101C300068646F6728434F50292052657365740AA2
:101C4000000000004C6F7373206F6620436C6F635D
:101C50006B2052657365740A000000003132382031
:101C60006B4279746573206F6620502D666C6173CA
:101C700068090000323536206B4279746573206F35
:101C80006620502D666C6173680900003531322082
:101C90006B4279746573206F6620502D666C61739A
:101CA0006809000030206B4279746573206F6620EC
:101CB000466C65784E564D0A0000000031323820DF
:101CC0006B4279746573206F6620466C65784E565A
:101CD0004D0A0000323536206B4279746573206FEF
:101CE0006620466C65784E564D0A000000F009F8F3
:101CF000002801D0FFF79EFE0020FFF79FF900F0BB
:101D000002F80120704700F001B80000074638468D
:101D100000F002F8FBE7000080B5C046C046024A6A
:101D200011001820ABBEFBE7260002004578746561
:101D3000726E616C2050696E2052657365740A0082
:101D400053696C69636F6E2072657620312E302086
:101D500020200A0053696C69636F6E2072657620DB
:101D6000312E3120200A000053696C69636F6E20A8
:101D700072657620312E3220200A00003332206B2B
:101D80004279746573206F662052414D0A0A000043
:101D90003634206B4279746573206F662052414D52
:101DA0000A0A00003936206B4279746573206F6629
:101DB0002052414D0A0A0000313238206B427974BA
:101DC0006573206F662052414D0A0A00B4AEBFDA37
:101DD000B7A2CBCDCAB5D1E90A0A0000536F667429
:101DE000776172652052657365740A00506F77657C
:101DF000722D6F6E2052657365740A0033327069FC
:101E00006E2020202020202000000000343870693F
:101E10006E20202020202020000000003634706931
:101E20006E20202020202020000000003830706923
:101E30006E20202020202020000000003831706912
:101E40006E20202020202020000000003130307043
:101E5000696E2020202020200000000031303470E6
:101E6000696E2020202020200000000031343470D2
:101E7000696E2020202020200000000031393670BB
:101E8000696E2020202020200000000032353670AE
:101E9000696E20202020202000000000502D666C5C
:101EA000617368206F6E6C790A00000010B5040041
:101EB0002100C9B20120FFF744FB10BD75617274A7
:101EC0005F73656E644E0A004A5441472052657341
:101ED00065740A004C4C57552052657365740A00AE
:101EE000666C617368C6F4B6AF0A00005352414D88
:101EF000C6F4B6AF0A000000C046C046C046C046A1
:101F0000FFF7F4FE0A4B31302D0000000A4B32304F
:101F10002D0000000A4B33302D0000000A4B3430F6
:101F20002D0000000A4B36302D0000000A4B3730E0
:101F30002D0000000A4B35302D0000000A4B3533D0
:041F40002D00000070
:040000051FFF1EF9C2
:00000001FF
