ARM Linker, 4.1 [Build 894] [Standard]

==============================================================================

Section Cross References

    startup_stm32f10x_hd.o(STACK) refers (Special) to heapauxi.o(.text) for __use_two_region_memory
    startup_stm32f10x_hd.o(HEAP) refers (Special) to heapauxi.o(.text) for __use_two_region_memory
    startup_stm32f10x_hd.o(RESET) refers (Special) to heapauxi.o(.text) for __use_two_region_memory
    startup_stm32f10x_hd.o(RESET) refers to startup_stm32f10x_hd.o(.text) for Reset_Handler
    startup_stm32f10x_hd.o(RESET) refers to stm32f10x_it.o(.text) for NMI_Handler
    startup_stm32f10x_hd.o(.text) refers (Special) to heapauxi.o(.text) for __use_two_region_memory
    startup_stm32f10x_hd.o(.text) refers to startup_stm32f10x_hd.o(STACK) for __initial_sp
    startup_stm32f10x_hd.o(.text) refers to __main.o(!!!main) for __main
    startup_stm32f10x_hd.o(.text) refers to startup_stm32f10x_hd.o(HEAP) for Heap_Mem
    stm32f10x_adc.o(.text) refers to stm32f10x_rcc.o(.text) for RCC_APB2PeriphResetCmd
    stm32f10x_bkp.o(.text) refers to stm32f10x_rcc.o(.text) for RCC_BackupResetCmd
    stm32f10x_can.o(.text) refers to stm32f10x_rcc.o(.text) for RCC_APB1PeriphResetCmd
    stm32f10x_dac.o(.text) refers to stm32f10x_rcc.o(.text) for RCC_APB1PeriphResetCmd
    stm32f10x_gpio.o(.text) refers to stm32f10x_rcc.o(.text) for RCC_APB2PeriphResetCmd
    stm32f10x_i2c.o(.text) refers to stm32f10x_rcc.o(.text) for RCC_APB1PeriphResetCmd
    stm32f10x_pwr.o(.text) refers to stm32f10x_rcc.o(.text) for RCC_APB1PeriphResetCmd
    stm32f10x_rcc.o(.text) refers to stm32f10x_rcc.o(.data) for APBAHBPrescTable
    stm32f10x_spi.o(.text) refers to stm32f10x_rcc.o(.text) for RCC_APB2PeriphResetCmd
==============================================================================

Removing Unused input sections from the image.

    Removing core_cm3.o(.emb_text), (32 bytes).
    Removing system_stm32f10x.o(.text), (292 bytes).
    Removing system_stm32f10x.o(.constdata), (20 bytes).
    Removing misc.o(.text), (220 bytes).
    Removing stm32f10x_adc.o(.text), (1072 bytes).
    Removing stm32f10x_bkp.o(.text), (164 bytes).
    Removing stm32f10x_can.o(.text), (1944 bytes).
    Removing stm32f10x_crc.o(.text), (72 bytes).
    Removing stm32f10x_dac.o(.text), (336 bytes).
    Removing stm32f10x_dbgmcu.o(.text), (48 bytes).
    Removing stm32f10x_dma.o(.text), (572 bytes).
    Removing stm32f10x_exti.o(.text), (292 bytes).
    Removing stm32f10x_flash.o(.text), (1312 bytes).
    Removing stm32f10x_fsmc.o(.text), (1552 bytes).
    Removing stm32f10x_i2c.o(.text), (984 bytes).
    Removing stm32f10x_iwdg.o(.text), (64 bytes).
    Removing stm32f10x_pwr.o(.text), (192 bytes).
    Removing stm32f10x_rtc.o(.text), (336 bytes).
==============================================================================

Image Symbol Table

    Local Symbols

    Symbol Name                              Value     Ov Type        Size  Object(Section)

    ../../angel/boardlib.s                   0x00000000   Number         0  boardinit1.o ABSOLUTE
    ../../angel/boardlib.s                   0x00000000   Number         0  boardinit2.o ABSOLUTE
    ../../angel/boardlib.s                   0x00000000   Number         0  boardinit3.o ABSOLUTE
    ../../angel/boardlib.s                   0x00000000   Number         0  boardshut.o ABSOLUTE
    ../../angel/handlers.s                   0x00000000   Number         0  __scatter_zi.o ABSOLUTE
    ../../angel/handlers.s                   0x00000000   Number         0  __scatter_copy.o ABSOLUTE
    ../../angel/kernel.s                     0x00000000   Number         0  rtexit2.o ABSOLUTE
    ../../angel/kernel.s                     0x00000000   Number         0  rtexit.o ABSOLUTE
    ../../angel/kernel.s                     0x00000000   Number         0  rtentry.o ABSOLUTE
    ../../angel/kernel.s                     0x00000000   Number         0  rtentry2.o ABSOLUTE
    ../../angel/kernel.s                     0x00000000   Number         0  rtentry4.o ABSOLUTE
    ../../angel/rt.s                         0x00000000   Number         0  rt_errno_addr_intlibspace.o ABSOLUTE
    ../../angel/rt.s                         0x00000000   Number         0  rt_errno_addr.o ABSOLUTE
    ../../angel/rt.s                         0x00000000   Number         0  rt_heap_descriptor_intlibspace.o ABSOLUTE
    ../../angel/rt.s                         0x00000000   Number         0  rt_fp_status_addr.o ABSOLUTE
    ../../angel/rt.s                         0x00000000   Number         0  rt_heap_descriptor.o ABSOLUTE
    ../../angel/rt.s                         0x00000000   Number         0  rt_raise.o ABSOLUTE
    ../../angel/rt.s                         0x00000000   Number         0  rt_fp_status_addr_intlibspace.o ABSOLUTE
    ../../angel/scatter.s                    0x00000000   Number         0  __scatter.o ABSOLUTE
    ../../angel/startup.s                    0x00000000   Number         0  __main.o ABSOLUTE
    ../../angel/sys.s                        0x00000000   Number         0  libspace.o ABSOLUTE
    ../../angel/sys.s                        0x00000000   Number         0  indicate_semi.o ABSOLUTE
    ../../angel/sys.s                        0x00000000   Number         0  sys_stackheap_outer.o ABSOLUTE
    ../../angel/sys.s                        0x00000000   Number         0  mutex_dummy.o ABSOLUTE
    ../../angel/sys.s                        0x00000000   Number         0  use_no_semi.o ABSOLUTE
    ../../angel/sysapp.c                     0x00000000   Number         0  sys_command.o ABSOLUTE
    ../../angel/sysapp.c                     0x00000000   Number         0  sys_exit.o ABSOLUTE
    ../../angel/sysapp.c                     0x00000000   Number         0  sys_io.o ABSOLUTE
    ../../angel/sysapp.c                     0x00000000   Number         0  sys_wrch.o ABSOLUTE
    ../../armsys.c                           0x00000000   Number         0  argv_veneer.o ABSOLUTE
    ../../armsys.c                           0x00000000   Number         0  argv_veneer.o ABSOLUTE
    ../../armsys.c                           0x00000000   Number         0  _get_argv.o ABSOLUTE
    ../../armsys.c                           0x00000000   Number         0  _get_argv_nomalloc.o ABSOLUTE
    ../../armsys.c                           0x00000000   Number         0  no_argv.o ABSOLUTE
    ../../assert.c                           0x00000000   Number         0  assert_stdio.o ABSOLUTE
    ../../fpinit.s                           0x00000000   Number         0  fpinit.o ABSOLUTE
    ../../heap1.c                            0x00000000   Number         0  h1_free_mt.o ABSOLUTE
    ../../heap1.c                            0x00000000   Number         0  h1_final_mt.o ABSOLUTE
    ../../heap1.c                            0x00000000   Number         0  h1_final.o ABSOLUTE
    ../../heap1.c                            0x00000000   Number         0  h1_init.o ABSOLUTE
    ../../heap1.c                            0x00000000   Number         0  h1_extend.o ABSOLUTE
    ../../heap1.c                            0x00000000   Number         0  h1_init_mt.o ABSOLUTE
    ../../heap1.c                            0x00000000   Number         0  h1_extend_mt.o ABSOLUTE
    ../../heap1.c                            0x00000000   Number         0  h1_free.o ABSOLUTE
    ../../heap1.c                            0x00000000   Number         0  h1_alloc.o ABSOLUTE
    ../../heap1.c                            0x00000000   Number         0  h1_alloc_mt.o ABSOLUTE
    ../../heap2.c                            0x00000000   Number         0  heap2.o ABSOLUTE
    ../../heap2.c                            0x00000000   Number         0  fdtree.o ABSOLUTE
    ../../heap2.c                            0x00000000   Number         0  heap2mt.o ABSOLUTE
    ../../heapalloc.c                        0x00000000   Number         0  term_alloc.o ABSOLUTE
    ../../heapalloc.c                        0x00000000   Number         0  maybetermalloc2.o ABSOLUTE
    ../../heapalloc.c                        0x00000000   Number         0  free.o ABSOLUTE
    ../../heapalloc.c                        0x00000000   Number         0  maybetermalloc2.o ABSOLUTE
    ../../heapalloc.c                        0x00000000   Number         0  maybetermalloc1.o ABSOLUTE
    ../../heapalloc.c                        0x00000000   Number         0  maybetermalloc1.o ABSOLUTE
    ../../heapalloc.c                        0x00000000   Number         0  hrguard.o ABSOLUTE
    ../../heapalloc.c                        0x00000000   Number         0  heapstubs.o ABSOLUTE
    ../../heapalloc.c                        0x00000000   Number         0  malloc.o ABSOLUTE
    ../../heapalloc.c                        0x00000000   Number         0  init_alloc.o ABSOLUTE
    ../../heapalloc.c                        0x00000000   Number         0  hguard.o ABSOLUTE
    ../../heapaux.c                          0x00000000   Number         0  heapauxa.o ABSOLUTE
    ../../heapaux.c                          0x00000000   Number         0  heapauxi.o ABSOLUTE
    ../../libinit.s                          0x00000000   Number         0  libinit.o ABSOLUTE
    ../../libinit.s                          0x00000000   Number         0  libshutdown.o ABSOLUTE
    ../../libinit.s                          0x00000000   Number         0  libshutdown2.o ABSOLUTE
    ../../libinit.s                          0x00000000   Number         0  libinit2.o ABSOLUTE
    ../../memcpset.s                         0x00000000   Number         0  rt_memclr_w.o ABSOLUTE
    ../../memcpset.s                         0x00000000   Number         0  rt_memcpy_w.o ABSOLUTE
    ../../memcpset.s                         0x00000000   Number         0  rt_memcpy_v6.o ABSOLUTE
    ../../printf.c                           0x00000000   Number         0  _printf_char_common.o ABSOLUTE
    ../../printf.c                           0x00000000   Number         0  _printf_char_file.o ABSOLUTE
    ../../printf.c                           0x00000000   Number         0  _printf_char_file_locked.o ABSOLUTE
    ../../printf.c                           0x00000000   Number         0  noretval__2printf.o ABSOLUTE
    ../../printf.c                           0x00000000   Number         0  __2printf.o ABSOLUTE
    ../../printf.c                           0x00000000   Number         0  __printf_nopercent.o ABSOLUTE
    ../../signal.c                           0x00000000   Number         0  defsig_abrt_inner.o ABSOLUTE
    ../../signal.c                           0x00000000   Number         0  defsig_rtred_formal.o ABSOLUTE
    ../../signal.c                           0x00000000   Number         0  __raise.o ABSOLUTE
    ../../signal.c                           0x00000000   Number         0  defsig_rtred_inner.o ABSOLUTE
    ../../signal.c                           0x00000000   Number         0  defsig_rtmem_formal.o ABSOLUTE
    ../../signal.c                           0x00000000   Number         0  defsig_rtmem_inner.o ABSOLUTE
    ../../signal.c                           0x00000000   Number         0  defsig_exit.o ABSOLUTE
    ../../signal.c                           0x00000000   Number         0  defsig_fpe_inner.o ABSOLUTE
    ../../signal.c                           0x00000000   Number         0  defsig_stak_inner.o ABSOLUTE
    ../../signal.c                           0x00000000   Number         0  defsig_pvfn_inner.o ABSOLUTE
    ../../signal.c                           0x00000000   Number         0  defsig_cppl_inner.o ABSOLUTE
    ../../signal.c                           0x00000000   Number         0  defsig_rtred_outer.o ABSOLUTE
    ../../signal.c                           0x00000000   Number         0  defsig_segv_inner.o ABSOLUTE
    ../../signal.c                           0x00000000   Number         0  defsig_other.o ABSOLUTE
    ../../signal.c                           0x00000000   Number         0  defsig_general.o ABSOLUTE
    ../../signal.c                           0x00000000   Number         0  defsig_rtmem_outer.o ABSOLUTE
    ../../signal.s                           0x00000000   Number         0  defsig.o ABSOLUTE
    ../../stdio.c                            0x00000000   Number         0  fflush_locked.o ABSOLUTE
    ../../stdio.c                            0x00000000   Number         0  fwritefast_locked.o ABSOLUTE
    ../../stdio.c                            0x00000000   Number         0  fwritefast.o ABSOLUTE
    ../../stdio.c                            0x00000000   Number         0  stdio.o ABSOLUTE
    ../../stdio.c                            0x00000000   Number         0  fseek.o ABSOLUTE
    ../../stdio.c                            0x00000000   Number         0  stdio_streams.o ABSOLUTE
    ../../stdio.c                            0x00000000   Number         0  streamlock.o ABSOLUTE
    ../../stdio.c                            0x00000000   Number         0  fputs_locked.o ABSOLUTE
    ../../stdio.c                            0x00000000   Number         0  ftell.o ABSOLUTE
    ../../stdio.c                            0x00000000   Number         0  fopen_locked.o ABSOLUTE
    ../../stdio.c                            0x00000000   Number         0  flsbuf.o ABSOLUTE
    ../../stdio.c                            0x00000000   Number         0  fflush.o ABSOLUTE
    ../../stdio.c                            0x00000000   Number         0  fopen.o ABSOLUTE
    ../../stdio.c                            0x00000000   Number         0  ferror.o ABSOLUTE
    ../../stdio.c                            0x00000000   Number         0  setvbuf.o ABSOLUTE
    ../../stdio.c                            0x00000000   Number         0  fputs.o ABSOLUTE
    ../../stdio.c                            0x00000000   Number         0  initio.o ABSOLUTE
    ../../stdio.c                            0x00000000   Number         0  fclose.o ABSOLUTE
    ../../stdio.c                            0x00000000   Number         0  fputc.o ABSOLUTE
    ../../stdio.c                            0x00000000   Number         0  setvbuf_locked.o ABSOLUTE
    ../../stdio.c                            0x00000000   Number         0  fputc_locked.o ABSOLUTE
    ../../stdio.c                            0x00000000   Number         0  ferror_locked.o ABSOLUTE
    ../../stdio.c                            0x00000000   Number         0  initio_locked.o ABSOLUTE
    ../../stdlib.c                           0x00000000   Number         0  exit.o ABSOLUTE
    ../../string.c                           0x00000000   Number         0  strlen.o ABSOLUTE
    ../../wchar.c                            0x00000000   Number         0  flsbuf_fwide.o ABSOLUTE
    ..\CMSIS\core_cm3.c                      0x00000000   Number         0  core_cm3.o ABSOLUTE
    ..\CMSIS\startup\arm\startup_stm32f10x_hd.s 0x00000000   Number         0  startup_stm32f10x_hd.o ABSOLUTE
    ..\CMSIS\system_stm32f10x.c              0x00000000   Number         0  system_stm32f10x.o ABSOLUTE
    ..\FWlib\src\misc.c                      0x00000000   Number         0  misc.o ABSOLUTE
    ..\FWlib\src\stm32f10x_adc.c             0x00000000   Number         0  stm32f10x_adc.o ABSOLUTE
    ..\FWlib\src\stm32f10x_bkp.c             0x00000000   Number         0  stm32f10x_bkp.o ABSOLUTE
    ..\FWlib\src\stm32f10x_can.c             0x00000000   Number         0  stm32f10x_can.o ABSOLUTE
    ..\FWlib\src\stm32f10x_crc.c             0x00000000   Number         0  stm32f10x_crc.o ABSOLUTE
    ..\FWlib\src\stm32f10x_dac.c             0x00000000   Number         0  stm32f10x_dac.o ABSOLUTE
    ..\FWlib\src\stm32f10x_dbgmcu.c          0x00000000   Number         0  stm32f10x_dbgmcu.o ABSOLUTE
    ..\FWlib\src\stm32f10x_dma.c             0x00000000   Number         0  stm32f10x_dma.o ABSOLUTE
    ..\FWlib\src\stm32f10x_exti.c            0x00000000   Number         0  stm32f10x_exti.o ABSOLUTE
    ..\FWlib\src\stm32f10x_flash.c           0x00000000   Number         0  stm32f10x_flash.o ABSOLUTE
    ..\FWlib\src\stm32f10x_fsmc.c            0x00000000   Number         0  stm32f10x_fsmc.o ABSOLUTE
    ..\FWlib\src\stm32f10x_gpio.c            0x00000000   Number         0  stm32f10x_gpio.o ABSOLUTE
    ..\FWlib\src\stm32f10x_i2c.c             0x00000000   Number         0  stm32f10x_i2c.o ABSOLUTE
    ..\FWlib\src\stm32f10x_iwdg.c            0x00000000   Number         0  stm32f10x_iwdg.o ABSOLUTE
    ..\FWlib\src\stm32f10x_pwr.c             0x00000000   Number         0  stm32f10x_pwr.o ABSOLUTE
    ..\FWlib\src\stm32f10x_rcc.c             0x00000000   Number         0  stm32f10x_rcc.o ABSOLUTE
    ..\FWlib\src\stm32f10x_rtc.c             0x00000000   Number         0  stm32f10x_rtc.o ABSOLUTE
    ..\FWlib\src\stm32f10x_sdio.c            0x00000000   Number         0  stm32f10x_sdio.o ABSOLUTE
    ..\FWlib\src\stm32f10x_spi.c             0x00000000   Number         0  stm32f10x_spi.o ABSOLUTE
    ..\FWlib\src\stm32f10x_tim.c             0x00000000   Number         0  stm32f10x_tim.o ABSOLUTE
    ..\FWlib\src\stm32f10x_usart.c           0x00000000   Number         0  stm32f10x_usart.o ABSOLUTE
    ..\FWlib\src\stm32f10x_wwdg.c            0x00000000   Number         0  stm32f10x_wwdg.o ABSOLUTE
    ..\\CMSIS\\core_cm3.c                    0x00000000   Number         0  core_cm3.o ABSOLUTE
    config.c                                 0x00000000   Number         0  config.o ABSOLUTE
    dc.s                                     0x00000000   Number         0  dc.o ABSOLUTE
    main.c                                   0x00000000   Number         0  main.o ABSOLUTE
    oled.c                                   0x00000000   Number         0  oled.o ABSOLUTE
    stm32f10x_it.c                           0x00000000   Number         0  stm32f10x_it.o ABSOLUTE
    RESET                                    0x08000000   Section      304  startup_stm32f10x_hd.o(RESET)
    !!!main                                  0x08000130   Section        8  __main.o(!!!main)
    !!!scatter                               0x08000138   Section       52  __scatter.o(!!!scatter)
    !!handler_copy                           0x0800016c   Section       26  __scatter_copy.o(!!handler_copy)
    !!handler_zi                             0x08000188   Section       28  __scatter_zi.o(!!handler_zi)
    .ARM.Collect$$libinit$$00000000          0x080001a4   Section        6  libinit.o(.ARM.Collect$$libinit$$00000000)
    .ARM.Collect$$libinit$$00000001          0x080001aa   Section        8  libinit2.o(.ARM.Collect$$libinit$$00000001)
    .ARM.Collect$$libinit$$00000006          0x080001b2   Section        0  libinit2.o(.ARM.Collect$$libinit$$00000006)
    .ARM.Collect$$libinit$$00000008          0x080001b2   Section        0  libinit2.o(.ARM.Collect$$libinit$$00000008)
    .ARM.Collect$$libinit$$0000000A          0x080001b2   Section        0  libinit2.o(.ARM.Collect$$libinit$$0000000A)
    .ARM.Collect$$libinit$$0000000D          0x080001b2   Section        0  libinit2.o(.ARM.Collect$$libinit$$0000000D)
    .ARM.Collect$$libinit$$0000000F          0x080001b2   Section        0  libinit2.o(.ARM.Collect$$libinit$$0000000F)
    .ARM.Collect$$libinit$$00000011          0x080001b2   Section        0  libinit2.o(.ARM.Collect$$libinit$$00000011)
    .ARM.Collect$$libinit$$00000013          0x080001b2   Section        0  libinit2.o(.ARM.Collect$$libinit$$00000013)
    .ARM.Collect$$libinit$$00000015          0x080001b2   Section        0  libinit2.o(.ARM.Collect$$libinit$$00000015)
    .ARM.Collect$$libinit$$00000017          0x080001b2   Section        0  libinit2.o(.ARM.Collect$$libinit$$00000017)
    .ARM.Collect$$libinit$$00000019          0x080001b2   Section        0  libinit2.o(.ARM.Collect$$libinit$$00000019)
    .ARM.Collect$$libinit$$0000001B          0x080001b2   Section        0  libinit2.o(.ARM.Collect$$libinit$$0000001B)
    .ARM.Collect$$libinit$$0000001D          0x080001b2   Section        0  libinit2.o(.ARM.Collect$$libinit$$0000001D)
    .ARM.Collect$$libinit$$0000001F          0x080001b2   Section        0  libinit2.o(.ARM.Collect$$libinit$$0000001F)
    .ARM.Collect$$libinit$$00000020          0x080001b2   Section        4  libinit2.o(.ARM.Collect$$libinit$$00000020)
    .ARM.Collect$$libinit$$00000021          0x080001b6   Section        0  libinit2.o(.ARM.Collect$$libinit$$00000021)
    .ARM.Collect$$libinit$$00000028          0x080001b6   Section        0  libinit2.o(.ARM.Collect$$libinit$$00000028)
    .ARM.Collect$$libinit$$0000002A          0x080001b6   Section        0  libinit2.o(.ARM.Collect$$libinit$$0000002A)
    .ARM.Collect$$libinit$$0000002C          0x080001b6   Section        0  libinit2.o(.ARM.Collect$$libinit$$0000002C)
    .ARM.Collect$$libinit$$0000002E          0x080001b6   Section        0  libinit2.o(.ARM.Collect$$libinit$$0000002E)
    .ARM.Collect$$libinit$$0000002F          0x080001b6   Section        2  libinit2.o(.ARM.Collect$$libinit$$0000002F)
    .ARM.Collect$$libshutdown$$00000000      0x080001b8   Section        2  libshutdown.o(.ARM.Collect$$libshutdown$$00000000)
    .ARM.Collect$$libshutdown$$00000002      0x080001ba   Section        4  libshutdown2.o(.ARM.Collect$$libshutdown$$00000002)
    .ARM.Collect$$libshutdown$$00000003      0x080001be   Section        0  libshutdown2.o(.ARM.Collect$$libshutdown$$00000003)
    .ARM.Collect$$libshutdown$$00000006      0x080001be   Section        0  libshutdown2.o(.ARM.Collect$$libshutdown$$00000006)
    .ARM.Collect$$libshutdown$$00000009      0x080001be   Section        0  libshutdown2.o(.ARM.Collect$$libshutdown$$00000009)
    .ARM.Collect$$libshutdown$$0000000B      0x080001be   Section        0  libshutdown2.o(.ARM.Collect$$libshutdown$$0000000B)
    .ARM.Collect$$libshutdown$$0000000E      0x080001be   Section        0  libshutdown2.o(.ARM.Collect$$libshutdown$$0000000E)
    .ARM.Collect$$libshutdown$$0000000F      0x080001be   Section        2  libshutdown2.o(.ARM.Collect$$libshutdown$$0000000F)
    .ARM.Collect$$rtentry$$00000000          0x080001c0   Section        0  rtentry.o(.ARM.Collect$$rtentry$$00000000)
    .ARM.Collect$$rtentry$$00000002          0x080001c0   Section        0  rtentry2.o(.ARM.Collect$$rtentry$$00000002)
    .ARM.Collect$$rtentry$$00000004          0x080001c0   Section        6  rtentry4.o(.ARM.Collect$$rtentry$$00000004)
    .ARM.Collect$$rtentry$$00000009          0x080001c6   Section        0  rtentry2.o(.ARM.Collect$$rtentry$$00000009)
    .ARM.Collect$$rtentry$$0000000A          0x080001c6   Section        4  rtentry2.o(.ARM.Collect$$rtentry$$0000000A)
    .ARM.Collect$$rtentry$$0000000C          0x080001ca   Section        0  rtentry2.o(.ARM.Collect$$rtentry$$0000000C)
    .ARM.Collect$$rtentry$$0000000D          0x080001ca   Section        8  rtentry2.o(.ARM.Collect$$rtentry$$0000000D)
    .ARM.Collect$$rtexit$$00000000           0x080001d2   Section        2  rtexit.o(.ARM.Collect$$rtexit$$00000000)
    .ARM.Collect$$rtexit$$00000002           0x080001d4   Section        0  rtexit2.o(.ARM.Collect$$rtexit$$00000002)
    .ARM.Collect$$rtexit$$00000003           0x080001d4   Section        4  rtexit2.o(.ARM.Collect$$rtexit$$00000003)
    .ARM.Collect$$rtexit$$00000004           0x080001d8   Section        6  rtexit2.o(.ARM.Collect$$rtexit$$00000004)
    .emb_text                                0x080001e0   Section        0  maybetermalloc1.o(.emb_text)
    .text                                    0x080001e0   Section       72  startup_stm32f10x_hd.o(.text)
    .text                                    0x08000228   Section        0  stm32f10x_gpio.o(.text)
    .text                                    0x08000554   Section        0  stm32f10x_rcc.o(.text)
    .text                                    0x080008f0   Section        0  stm32f10x_spi.o(.text)
    .text                                    0x08000bf4   Section        0  stm32f10x_usart.o(.text)
    .text                                    0x08000f6c   Section        0  main.o(.text)
    .text                                    0x08000fec   Section        0  stm32f10x_it.o(.text)
    .text                                    0x08001008   Section        0  oled.o(.text)
    .text                                    0x080011dc   Section        0  config.o(.text)
    .text                                    0x08001318   Section        0  noretval__2printf.o(.text)
    .text                                    0x08001330   Section        0  heapauxi.o(.text)
    .text                                    0x08001338   Section        0  _printf_char_file.o(.text)
    .text                                    0x0800135c   Section        0  _printf_char_common.o(.text)
    _printf_input_char                       0x0800135d   Thumb Code    10  _printf_char_common.o(.text)
    .text                                    0x0800138c   Section        0  ferror.o(.text)
    .text                                    0x08001394   Section        0  initio.o(.text)
    .text                                    0x080014cc   Section        0  sys_io.o(.text)
    .text                                    0x08001532   Section       74  sys_stackheap_outer.o(.text)
    .text                                    0x0800157c   Section        0  h1_free.o(.text)
    .text                                    0x080015ca   Section        0  __printf_nopercent.o(.text)
    .text                                    0x080015f0   Section        0  flsbuf.o(.text)
    .text                                    0x080017d0   Section        0  setvbuf.o(.text)
    .text                                    0x08001818   Section        0  fopen.o(.text)
    _freopen_locked                          0x08001819   Thumb Code     0  fopen.o(.text)
    .text                                    0x08001904   Section        0  fclose.o(.text)
    .text                                    0x08001950   Section        0  exit.o(.text)
    .text                                    0x0800195c   Section        0  defsig_rtred_outer.o(.text)
    .text                                    0x0800196a   Section       78  rt_memclr_w.o(.text)
    .text                                    0x080019b8   Section        8  libspace.o(.text)
    .text                                    0x080019c0   Section        2  use_no_semi.o(.text)
    .text                                    0x080019c2   Section        0  indicate_semi.o(.text)
    .text                                    0x080019c4   Section        8  rt_heap_descriptor_intlibspace.o(.text)
    .text                                    0x080019cc   Section        0  hguard.o(.text)
    .text                                    0x080019d0   Section        0  init_alloc.o(.text)
    .text                                    0x08001a5a   Section        0  h1_alloc.o(.text)
    .text                                    0x08001ab8   Section        0  fseek.o(.text)
    .text                                    0x08001bb0   Section        0  stdio.o(.text)
    .text                                    0x08001ca0   Section        0  defsig_exit.o(.text)
    .text                                    0x08001cac   Section        0  defsig_rtred_inner.o(.text)
    .text                                    0x08001ce0   Section        0  strlen.o(.text)
    .text                                    0x08001d20   Section        0  sys_exit.o(.text)
    .text                                    0x08001d2c   Section        8  rt_fp_status_addr_intlibspace.o(.text)
    .text                                    0x08001d34   Section        0  h1_init.o(.text)
    .text                                    0x08001d42   Section        0  h1_extend.o(.text)
    .text                                    0x08001d76   Section        0  ftell.o(.text)
    .text                                    0x08001dbc   Section        0  defsig_general.o(.text)
    .text                                    0x08001dee   Section        0  defsig_rtmem_outer.o(.text)
    .text                                    0x08001dfc   Section        0  sys_wrch.o(.text)
    .text                                    0x08001e0c   Section        8  rt_errno_addr_intlibspace.o(.text)
    .text                                    0x08001e14   Section        0  defsig_rtmem_inner.o(.text)
    i.fputc                                  0x08001e64   Section        0  fputc.o(i.fputc)
    x$fpl$fpinit                             0x08001e7e   Section       14  fpinit.o(x$fpl$fpinit)
    .constdata                               0x08001e8c   Section        4  sys_io.o(.constdata)
    .constdata                               0x08001e90   Section        4  sys_io.o(.constdata)
    .constdata                               0x08001e94   Section        4  sys_io.o(.constdata)
    .data                                    0x20000000   Section       20  stm32f10x_rcc.o(.data)
    APBAHBPrescTable                         0x20000000   Data          16  stm32f10x_rcc.o(.data)
    ADCPrescTable                            0x20000010   Data           4  stm32f10x_rcc.o(.data)
    .data                                    0x20000014   Section        4  stdio_streams.o(.data)
    .data                                    0x20000018   Section        4  stdio_streams.o(.data)
    .data                                    0x2000001c   Section        4  stdio_streams.o(.data)
    .bss                                     0x20000020   Section       80  stdio_streams.o(.bss)
    .bss                                     0x20000070   Section       80  stdio_streams.o(.bss)
    .bss                                     0x200000c0   Section       80  stdio_streams.o(.bss)
    .bss                                     0x20000110   Section       96  libspace.o(.bss)
    HEAP                                     0x20000170   Section        0  startup_stm32f10x_hd.o(HEAP)
    STACK                                    0x20000170   Section      512  startup_stm32f10x_hd.o(STACK)
    Heap_Mem                                 0x20000170   Data           0  startup_stm32f10x_hd.o(HEAP)
    Stack_Mem                                0x20000170   Data         512  startup_stm32f10x_hd.o(STACK)
    __initial_sp                             0x20000370   Data           0  startup_stm32f10x_hd.o(STACK)

    Global Symbols

    Symbol Name                              Value     Ov Type        Size  Object(Section)

    BuildAttributes$$THM_ISAv4$P$D$K$B$S$PE$A:L22UL41UL21$X:L11$S22US41US21$IEEE1$IW$USESV6$~STKCKD$USESV7$~SHL$OTIME$ROPI$EBA8$UX$STANDARDLIB$REQ8$PRES8$EABIv2 0x00000000   Number         0  anon$$obj.o ABSOLUTE
    __ARM_use_no_argv                        0x00000000   Number         0  main.o ABSOLUTE
    __ARM_exceptions_init                     - Undefined Weak Reference
    __alloca_initialize                       - Undefined Weak Reference
    __cpp_initialize__aeabi_                  - Undefined Weak Reference
    __cxa_finalize                            - Undefined Weak Reference
    __rt_locale                               - Undefined Weak Reference
    __sigvec_lookup                           - Undefined Weak Reference
    __user_heap_extent                        - Undefined Weak Reference
    _atexit_init                              - Undefined Weak Reference
    _call_atexit_fns                          - Undefined Weak Reference
    _clock_init                               - Undefined Weak Reference
    _fp_trap_init                             - Undefined Weak Reference
    _fp_trap_shutdown                         - Undefined Weak Reference
    _get_lc_collate                           - Undefined Weak Reference
    _get_lc_ctype                             - Undefined Weak Reference
    _get_lc_monetary                          - Undefined Weak Reference
    _get_lc_numeric                           - Undefined Weak Reference
    _get_lc_time                              - Undefined Weak Reference
    _getenv_init                              - Undefined Weak Reference
    _handle_redirection                       - Undefined Weak Reference
    _mutex_acquire                            - Undefined Weak Reference
    _mutex_free                               - Undefined Weak Reference
    _mutex_release                            - Undefined Weak Reference
    _rand_init                                - Undefined Weak Reference
    _signal_finish                            - Undefined Weak Reference
    _signal_init                              - Undefined Weak Reference
    __Vectors_Size                           0x00000130   Number         0  startup_stm32f10x_hd.o ABSOLUTE
    __Vectors                                0x08000000   Data           4  startup_stm32f10x_hd.o(RESET)
    __Vectors_End                            0x08000130   Data           0  startup_stm32f10x_hd.o(RESET)
    __main                                   0x08000131   Thumb Code     8  __main.o(!!!main)
    __scatterload                            0x08000139   Thumb Code     0  __scatter.o(!!!scatter)
    __scatterload_rt2                        0x08000139   Thumb Code    44  __scatter.o(!!!scatter)
    __scatterload_rt2_thumb_only             0x08000139   Thumb Code     0  __scatter.o(!!!scatter)
    __scatterload_null                       0x08000147   Thumb Code     0  __scatter.o(!!!scatter)
    __scatterload_copy                       0x0800016d   Thumb Code    26  __scatter_copy.o(!!handler_copy)
    __scatterload_zeroinit                   0x08000189   Thumb Code    28  __scatter_zi.o(!!handler_zi)
    __rt_lib_init                            0x080001a5   Thumb Code     0  libinit.o(.ARM.Collect$$libinit$$00000000)
    __rt_lib_init_heap_2                     0x080001ab   Thumb Code     0  libinit2.o(.ARM.Collect$$libinit$$00000001)
    __rt_lib_init_atexit_1                   0x080001b3   Thumb Code     0  libinit2.o(.ARM.Collect$$libinit$$00000017)
    __rt_lib_init_clock_1                    0x080001b3   Thumb Code     0  libinit2.o(.ARM.Collect$$libinit$$0000001D)
    __rt_lib_init_fp_trap_1                  0x080001b3   Thumb Code     0  libinit2.o(.ARM.Collect$$libinit$$0000001B)
    __rt_lib_init_getenv_1                   0x080001b3   Thumb Code     0  libinit2.o(.ARM.Collect$$libinit$$0000001F)
    __rt_lib_init_heap_1                     0x080001b3   Thumb Code     0  libinit2.o(.ARM.Collect$$libinit$$00000006)
    __rt_lib_init_lc_collate_1               0x080001b3   Thumb Code     0  libinit2.o(.ARM.Collect$$libinit$$0000000D)
    __rt_lib_init_lc_ctype_1                 0x080001b3   Thumb Code     0  libinit2.o(.ARM.Collect$$libinit$$0000000F)
    __rt_lib_init_lc_monetary_1              0x080001b3   Thumb Code     0  libinit2.o(.ARM.Collect$$libinit$$00000011)
    __rt_lib_init_lc_numeric_1               0x080001b3   Thumb Code     0  libinit2.o(.ARM.Collect$$libinit$$00000013)
    __rt_lib_init_lc_time_1                  0x080001b3   Thumb Code     0  libinit2.o(.ARM.Collect$$libinit$$00000015)
    __rt_lib_init_rand_1                     0x080001b3   Thumb Code     0  libinit2.o(.ARM.Collect$$libinit$$0000000A)
    __rt_lib_init_signal_1                   0x080001b3   Thumb Code     0  libinit2.o(.ARM.Collect$$libinit$$00000019)
    __rt_lib_init_stdio_2                    0x080001b3   Thumb Code     0  libinit2.o(.ARM.Collect$$libinit$$00000020)
    __rt_lib_init_user_alloc_1               0x080001b3   Thumb Code     0  libinit2.o(.ARM.Collect$$libinit$$00000008)
    __rt_lib_init_alloca_1                   0x080001b7   Thumb Code     0  libinit2.o(.ARM.Collect$$libinit$$0000002A)
    __rt_lib_init_argv_1                     0x080001b7   Thumb Code     0  libinit2.o(.ARM.Collect$$libinit$$00000028)
    __rt_lib_init_cpp_1                      0x080001b7   Thumb Code     0  libinit2.o(.ARM.Collect$$libinit$$0000002E)
    __rt_lib_init_exceptions_1               0x080001b7   Thumb Code     0  libinit2.o(.ARM.Collect$$libinit$$0000002C)
    __rt_lib_init_return                     0x080001b7   Thumb Code     0  libinit2.o(.ARM.Collect$$libinit$$0000002F)
    __rt_lib_init_stdio_1                    0x080001b7   Thumb Code     0  libinit2.o(.ARM.Collect$$libinit$$00000021)
    __rt_lib_shutdown                        0x080001b9   Thumb Code     0  libshutdown.o(.ARM.Collect$$libshutdown$$00000000)
    __rt_lib_shutdown_stdio_2                0x080001bb   Thumb Code     0  libshutdown2.o(.ARM.Collect$$libshutdown$$00000002)
    __rt_lib_shutdown_fp_trap_1              0x080001bf   Thumb Code     0  libshutdown2.o(.ARM.Collect$$libshutdown$$00000006)
    __rt_lib_shutdown_heap_1                 0x080001bf   Thumb Code     0  libshutdown2.o(.ARM.Collect$$libshutdown$$0000000E)
    __rt_lib_shutdown_return                 0x080001bf   Thumb Code     0  libshutdown2.o(.ARM.Collect$$libshutdown$$0000000F)
    __rt_lib_shutdown_signal_1               0x080001bf   Thumb Code     0  libshutdown2.o(.ARM.Collect$$libshutdown$$00000009)
    __rt_lib_shutdown_stdio_1                0x080001bf   Thumb Code     0  libshutdown2.o(.ARM.Collect$$libshutdown$$00000003)
    __rt_lib_shutdown_user_alloc_1           0x080001bf   Thumb Code     0  libshutdown2.o(.ARM.Collect$$libshutdown$$0000000B)
    __rt_entry                               0x080001c1   Thumb Code     0  rtentry.o(.ARM.Collect$$rtentry$$00000000)
    __rt_entry_presh_1                       0x080001c1   Thumb Code     0  rtentry2.o(.ARM.Collect$$rtentry$$00000002)
    __rt_entry_sh                            0x080001c1   Thumb Code     0  rtentry4.o(.ARM.Collect$$rtentry$$00000004)
    __rt_entry_li                            0x080001c7   Thumb Code     0  rtentry2.o(.ARM.Collect$$rtentry$$0000000A)
    __rt_entry_postsh_1                      0x080001c7   Thumb Code     0  rtentry2.o(.ARM.Collect$$rtentry$$00000009)
    __rt_entry_main                          0x080001cb   Thumb Code     0  rtentry2.o(.ARM.Collect$$rtentry$$0000000D)
    __rt_entry_postli_1                      0x080001cb   Thumb Code     0  rtentry2.o(.ARM.Collect$$rtentry$$0000000C)
    __rt_exit                                0x080001d3   Thumb Code     0  rtexit.o(.ARM.Collect$$rtexit$$00000000)
    __rt_exit_ls                             0x080001d5   Thumb Code     0  rtexit2.o(.ARM.Collect$$rtexit$$00000003)
    __rt_exit_prels_1                        0x080001d5   Thumb Code     0  rtexit2.o(.ARM.Collect$$rtexit$$00000002)
    __rt_exit_exit                           0x080001d9   Thumb Code     0  rtexit2.o(.ARM.Collect$$rtexit$$00000004)
    SystemInit_ExtMemCtl                     0x080001e1   Thumb Code     2  startup_stm32f10x_hd.o(.text)
    _maybe_terminate_alloc                   0x080001e1   Thumb Code     0  maybetermalloc1.o(.emb_text)
    Reset_Handler                            0x080001e3   Thumb Code    14  startup_stm32f10x_hd.o(.text)
    ADC1_2_IRQHandler                        0x08000203   Thumb Code     0  startup_stm32f10x_hd.o(.text)
    ADC3_IRQHandler                          0x08000203   Thumb Code     0  startup_stm32f10x_hd.o(.text)
    CAN1_RX1_IRQHandler                      0x08000203   Thumb Code     0  startup_stm32f10x_hd.o(.text)
    CAN1_SCE_IRQHandler                      0x08000203   Thumb Code     0  startup_stm32f10x_hd.o(.text)
    DMA1_Channel1_IRQHandler                 0x08000203   Thumb Code     0  startup_stm32f10x_hd.o(.text)
    DMA1_Channel2_IRQHandler                 0x08000203   Thumb Code     0  startup_stm32f10x_hd.o(.text)
    DMA1_Channel3_IRQHandler                 0x08000203   Thumb Code     0  startup_stm32f10x_hd.o(.text)
    DMA1_Channel4_IRQHandler                 0x08000203   Thumb Code     0  startup_stm32f10x_hd.o(.text)
    DMA1_Channel5_IRQHandler                 0x08000203   Thumb Code     0  startup_stm32f10x_hd.o(.text)
    DMA1_Channel6_IRQHandler                 0x08000203   Thumb Code     0  startup_stm32f10x_hd.o(.text)
    DMA1_Channel7_IRQHandler                 0x08000203   Thumb Code     0  startup_stm32f10x_hd.o(.text)
    DMA2_Channel1_IRQHandler                 0x08000203   Thumb Code     0  startup_stm32f10x_hd.o(.text)
    DMA2_Channel2_IRQHandler                 0x08000203   Thumb Code     0  startup_stm32f10x_hd.o(.text)
    DMA2_Channel3_IRQHandler                 0x08000203   Thumb Code     0  startup_stm32f10x_hd.o(.text)
    DMA2_Channel4_5_IRQHandler               0x08000203   Thumb Code     0  startup_stm32f10x_hd.o(.text)
    EXTI0_IRQHandler                         0x08000203   Thumb Code     0  startup_stm32f10x_hd.o(.text)
    EXTI15_10_IRQHandler                     0x08000203   Thumb Code     0  startup_stm32f10x_hd.o(.text)
    EXTI1_IRQHandler                         0x08000203   Thumb Code     0  startup_stm32f10x_hd.o(.text)
    EXTI2_IRQHandler                         0x08000203   Thumb Code     0  startup_stm32f10x_hd.o(.text)
    EXTI3_IRQHandler                         0x08000203   Thumb Code     0  startup_stm32f10x_hd.o(.text)
    EXTI4_IRQHandler                         0x08000203   Thumb Code     0  startup_stm32f10x_hd.o(.text)
    EXTI9_5_IRQHandler                       0x08000203   Thumb Code     0  startup_stm32f10x_hd.o(.text)
    FLASH_IRQHandler                         0x08000203   Thumb Code     0  startup_stm32f10x_hd.o(.text)
    FSMC_IRQHandler                          0x08000203   Thumb Code     0  startup_stm32f10x_hd.o(.text)
    I2C1_ER_IRQHandler                       0x08000203   Thumb Code     0  startup_stm32f10x_hd.o(.text)
    I2C1_EV_IRQHandler                       0x08000203   Thumb Code     0  startup_stm32f10x_hd.o(.text)
    I2C2_ER_IRQHandler                       0x08000203   Thumb Code     0  startup_stm32f10x_hd.o(.text)
    I2C2_EV_IRQHandler                       0x08000203   Thumb Code     0  startup_stm32f10x_hd.o(.text)
    PVD_IRQHandler                           0x08000203   Thumb Code     0  startup_stm32f10x_hd.o(.text)
    RCC_IRQHandler                           0x08000203   Thumb Code     0  startup_stm32f10x_hd.o(.text)
    RTCAlarm_IRQHandler                      0x08000203   Thumb Code     0  startup_stm32f10x_hd.o(.text)
    RTC_IRQHandler                           0x08000203   Thumb Code     0  startup_stm32f10x_hd.o(.text)
    SDIO_IRQHandler                          0x08000203   Thumb Code     0  startup_stm32f10x_hd.o(.text)
    SPI1_IRQHandler                          0x08000203   Thumb Code     0  startup_stm32f10x_hd.o(.text)
    SPI2_IRQHandler                          0x08000203   Thumb Code     0  startup_stm32f10x_hd.o(.text)
    SPI3_IRQHandler                          0x08000203   Thumb Code     0  startup_stm32f10x_hd.o(.text)
    TAMPER_IRQHandler                        0x08000203   Thumb Code     0  startup_stm32f10x_hd.o(.text)
    TIM1_BRK_IRQHandler                      0x08000203   Thumb Code     0  startup_stm32f10x_hd.o(.text)
    TIM1_CC_IRQHandler                       0x08000203   Thumb Code     0  startup_stm32f10x_hd.o(.text)
    TIM1_TRG_COM_IRQHandler                  0x08000203   Thumb Code     0  startup_stm32f10x_hd.o(.text)
    TIM1_UP_IRQHandler                       0x08000203   Thumb Code     0  startup_stm32f10x_hd.o(.text)
    TIM2_IRQHandler                          0x08000203   Thumb Code     0  startup_stm32f10x_hd.o(.text)
    TIM3_IRQHandler                          0x08000203   Thumb Code     0  startup_stm32f10x_hd.o(.text)
    TIM4_IRQHandler                          0x08000203   Thumb Code     0  startup_stm32f10x_hd.o(.text)
    TIM5_IRQHandler                          0x08000203   Thumb Code     0  startup_stm32f10x_hd.o(.text)
    TIM6_IRQHandler                          0x08000203   Thumb Code     0  startup_stm32f10x_hd.o(.text)
    TIM7_IRQHandler                          0x08000203   Thumb Code     0  startup_stm32f10x_hd.o(.text)
    TIM8_BRK_IRQHandler                      0x08000203   Thumb Code     0  startup_stm32f10x_hd.o(.text)
    TIM8_CC_IRQHandler                       0x08000203   Thumb Code     0  startup_stm32f10x_hd.o(.text)
    TIM8_TRG_COM_IRQHandler                  0x08000203   Thumb Code     0  startup_stm32f10x_hd.o(.text)
    TIM8_UP_IRQHandler                       0x08000203   Thumb Code     0  startup_stm32f10x_hd.o(.text)
    UART4_IRQHandler                         0x08000203   Thumb Code     0  startup_stm32f10x_hd.o(.text)
    UART5_IRQHandler                         0x08000203   Thumb Code     0  startup_stm32f10x_hd.o(.text)
    USART1_IRQHandler                        0x08000203   Thumb Code     0  startup_stm32f10x_hd.o(.text)
    USART2_IRQHandler                        0x08000203   Thumb Code     0  startup_stm32f10x_hd.o(.text)
    USART3_IRQHandler                        0x08000203   Thumb Code     0  startup_stm32f10x_hd.o(.text)
    USBWakeUp_IRQHandler                     0x08000203   Thumb Code     0  startup_stm32f10x_hd.o(.text)
    USB_HP_CAN1_TX_IRQHandler                0x08000203   Thumb Code     0  startup_stm32f10x_hd.o(.text)
    USB_LP_CAN1_RX0_IRQHandler               0x08000203   Thumb Code     0  startup_stm32f10x_hd.o(.text)
    WWDG_IRQHandler                          0x08000203   Thumb Code     0  startup_stm32f10x_hd.o(.text)
    __user_initial_stackheap                 0x08000205   Thumb Code     0  startup_stm32f10x_hd.o(.text)
    GPIO_DeInit                              0x08000229   Thumb Code   188  stm32f10x_gpio.o(.text)
    GPIO_AFIODeInit                          0x080002e5   Thumb Code    20  stm32f10x_gpio.o(.text)
    GPIO_Init                                0x080002f9   Thumb Code   274  stm32f10x_gpio.o(.text)
    GPIO_StructInit                          0x0800040b   Thumb Code    16  stm32f10x_gpio.o(.text)
    GPIO_ReadInputDataBit                    0x0800041b   Thumb Code    18  stm32f10x_gpio.o(.text)
    GPIO_ReadInputData                       0x0800042d   Thumb Code     8  stm32f10x_gpio.o(.text)
    GPIO_ReadOutputDataBit                   0x08000435   Thumb Code    18  stm32f10x_gpio.o(.text)
    GPIO_ReadOutputData                      0x08000447   Thumb Code     8  stm32f10x_gpio.o(.text)
    GPIO_SetBits                             0x0800044f   Thumb Code     4  stm32f10x_gpio.o(.text)
    GPIO_ResetBits                           0x08000453   Thumb Code     4  stm32f10x_gpio.o(.text)
    GPIO_WriteBit                            0x08000457   Thumb Code    10  stm32f10x_gpio.o(.text)
    GPIO_Write                               0x08000461   Thumb Code     4  stm32f10x_gpio.o(.text)
    GPIO_PinLockConfig                       0x08000465   Thumb Code    18  stm32f10x_gpio.o(.text)
    GPIO_EventOutputConfig                   0x08000477   Thumb Code    26  stm32f10x_gpio.o(.text)
    GPIO_EventOutputCmd                      0x08000491   Thumb Code     6  stm32f10x_gpio.o(.text)
    GPIO_PinRemapConfig                      0x08000497   Thumb Code   106  stm32f10x_gpio.o(.text)
    GPIO_EXTILineConfig                      0x08000501   Thumb Code    66  stm32f10x_gpio.o(.text)
    RCC_DeInit                               0x08000555   Thumb Code    62  stm32f10x_rcc.o(.text)
    RCC_HSEConfig                            0x08000593   Thumb Code    70  stm32f10x_rcc.o(.text)
    RCC_GetFlagStatus                        0x080005d9   Thumb Code    56  stm32f10x_rcc.o(.text)
    RCC_WaitForHSEStartUp                    0x08000611   Thumb Code    46  stm32f10x_rcc.o(.text)
    RCC_AdjustHSICalibrationValue            0x0800063f   Thumb Code    20  stm32f10x_rcc.o(.text)
    RCC_HSICmd                               0x08000653   Thumb Code     6  stm32f10x_rcc.o(.text)
    RCC_PLLConfig                            0x08000659   Thumb Code    24  stm32f10x_rcc.o(.text)
    RCC_PLLCmd                               0x08000671   Thumb Code     6  stm32f10x_rcc.o(.text)
    RCC_SYSCLKConfig                         0x08000677   Thumb Code    18  stm32f10x_rcc.o(.text)
    RCC_GetSYSCLKSource                      0x08000689   Thumb Code    10  stm32f10x_rcc.o(.text)
    RCC_HCLKConfig                           0x08000693   Thumb Code    18  stm32f10x_rcc.o(.text)
    RCC_PCLK1Config                          0x080006a5   Thumb Code    18  stm32f10x_rcc.o(.text)
    RCC_PCLK2Config                          0x080006b7   Thumb Code    20  stm32f10x_rcc.o(.text)
    RCC_ITConfig                             0x080006cb   Thumb Code    30  stm32f10x_rcc.o(.text)
    RCC_USBCLKConfig                         0x080006e9   Thumb Code     6  stm32f10x_rcc.o(.text)
    RCC_ADCCLKConfig                         0x080006ef   Thumb Code    18  stm32f10x_rcc.o(.text)
    RCC_LSEConfig                            0x08000701   Thumb Code    44  stm32f10x_rcc.o(.text)
    RCC_LSICmd                               0x0800072d   Thumb Code     6  stm32f10x_rcc.o(.text)
    RCC_RTCCLKConfig                         0x08000733   Thumb Code    12  stm32f10x_rcc.o(.text)
    RCC_RTCCLKCmd                            0x0800073f   Thumb Code     8  stm32f10x_rcc.o(.text)
    RCC_GetClocksFreq                        0x08000747   Thumb Code   192  stm32f10x_rcc.o(.text)
    RCC_AHBPeriphClockCmd                    0x08000807   Thumb Code    26  stm32f10x_rcc.o(.text)
    RCC_APB2PeriphClockCmd                   0x08000821   Thumb Code    26  stm32f10x_rcc.o(.text)
    RCC_APB1PeriphClockCmd                   0x0800083b   Thumb Code    26  stm32f10x_rcc.o(.text)
    RCC_APB2PeriphResetCmd                   0x08000855   Thumb Code    26  stm32f10x_rcc.o(.text)
    RCC_APB1PeriphResetCmd                   0x0800086f   Thumb Code    26  stm32f10x_rcc.o(.text)
    RCC_BackupResetCmd                       0x08000889   Thumb Code     8  stm32f10x_rcc.o(.text)
    RCC_ClockSecuritySystemCmd               0x08000891   Thumb Code     6  stm32f10x_rcc.o(.text)
    RCC_MCOConfig                            0x08000897   Thumb Code     6  stm32f10x_rcc.o(.text)
    RCC_ClearFlag                            0x0800089d   Thumb Code    14  stm32f10x_rcc.o(.text)
    RCC_GetITStatus                          0x080008ab   Thumb Code    20  stm32f10x_rcc.o(.text)
    RCC_ClearITPendingBit                    0x080008bf   Thumb Code     6  stm32f10x_rcc.o(.text)
    SPI_I2S_DeInit                           0x080008f1   Thumb Code    88  stm32f10x_spi.o(.text)
    SPI_Init                                 0x08000949   Thumb Code    60  stm32f10x_spi.o(.text)
    I2S_Init                                 0x08000985   Thumb Code   206  stm32f10x_spi.o(.text)
    SPI_StructInit                           0x08000a53   Thumb Code    24  stm32f10x_spi.o(.text)
    I2S_StructInit                           0x08000a6b   Thumb Code    20  stm32f10x_spi.o(.text)
    SPI_Cmd                                  0x08000a7f   Thumb Code    24  stm32f10x_spi.o(.text)
    I2S_Cmd                                  0x08000a97   Thumb Code    24  stm32f10x_spi.o(.text)
    SPI_I2S_ITConfig                         0x08000aaf   Thumb Code    36  stm32f10x_spi.o(.text)
    SPI_I2S_DMACmd                           0x08000ad3   Thumb Code    24  stm32f10x_spi.o(.text)
    SPI_I2S_SendData                         0x08000aeb   Thumb Code     4  stm32f10x_spi.o(.text)
    SPI_I2S_ReceiveData                      0x08000aef   Thumb Code     6  stm32f10x_spi.o(.text)
    SPI_NSSInternalSoftwareConfig            0x08000af5   Thumb Code    30  stm32f10x_spi.o(.text)
    SPI_SSOutputCmd                          0x08000b13   Thumb Code    24  stm32f10x_spi.o(.text)
    SPI_DataSizeConfig                       0x08000b2b   Thumb Code    18  stm32f10x_spi.o(.text)
    SPI_TransmitCRC                          0x08000b3d   Thumb Code    10  stm32f10x_spi.o(.text)
    SPI_CalculateCRC                         0x08000b47   Thumb Code    24  stm32f10x_spi.o(.text)
    SPI_GetCRC                               0x08000b5f   Thumb Code    16  stm32f10x_spi.o(.text)
    SPI_GetCRCPolynomial                     0x08000b6f   Thumb Code     6  stm32f10x_spi.o(.text)
    SPI_BiDirectionalLineConfig              0x08000b75   Thumb Code    28  stm32f10x_spi.o(.text)
    SPI_I2S_GetFlagStatus                    0x08000b91   Thumb Code    18  stm32f10x_spi.o(.text)
    SPI_I2S_ClearFlag                        0x08000ba3   Thumb Code     6  stm32f10x_spi.o(.text)
    SPI_I2S_GetITStatus                      0x08000ba9   Thumb Code    52  stm32f10x_spi.o(.text)
    SPI_I2S_ClearITPendingBit                0x08000bdd   Thumb Code    20  stm32f10x_spi.o(.text)
    USART_DeInit                             0x08000bf5   Thumb Code   146  stm32f10x_usart.o(.text)
    USART_Init                               0x08000c87   Thumb Code   150  stm32f10x_usart.o(.text)
    USART_StructInit                         0x08000d1d   Thumb Code    24  stm32f10x_usart.o(.text)
    USART_ClockInit                          0x08000d35   Thumb Code    34  stm32f10x_usart.o(.text)
    USART_ClockStructInit                    0x08000d57   Thumb Code    12  stm32f10x_usart.o(.text)
    USART_Cmd                                0x08000d63   Thumb Code    24  stm32f10x_usart.o(.text)
    USART_ITConfig                           0x08000d7b   Thumb Code    64  stm32f10x_usart.o(.text)
    USART_DMACmd                             0x08000dbb   Thumb Code    24  stm32f10x_usart.o(.text)
    USART_SetAddress                         0x08000dd3   Thumb Code    18  stm32f10x_usart.o(.text)
    USART_WakeUpConfig                       0x08000de5   Thumb Code    18  stm32f10x_usart.o(.text)
    USART_ReceiverWakeUpCmd                  0x08000df7   Thumb Code    24  stm32f10x_usart.o(.text)
    USART_LINBreakDetectLengthConfig         0x08000e0f   Thumb Code    18  stm32f10x_usart.o(.text)
    USART_LINCmd                             0x08000e21   Thumb Code    24  stm32f10x_usart.o(.text)
    USART_SendData                           0x08000e39   Thumb Code     8  stm32f10x_usart.o(.text)
    USART_ReceiveData                        0x08000e41   Thumb Code    10  stm32f10x_usart.o(.text)
    USART_SendBreak                          0x08000e4b   Thumb Code    10  stm32f10x_usart.o(.text)
    USART_SetGuardTime                       0x08000e55   Thumb Code    16  stm32f10x_usart.o(.text)
    USART_SetPrescaler                       0x08000e65   Thumb Code    16  stm32f10x_usart.o(.text)
    USART_SmartCardCmd                       0x08000e75   Thumb Code    24  stm32f10x_usart.o(.text)
    USART_SmartCardNACKCmd                   0x08000e8d   Thumb Code    24  stm32f10x_usart.o(.text)
    USART_HalfDuplexCmd                      0x08000ea5   Thumb Code    24  stm32f10x_usart.o(.text)
    USART_IrDAConfig                         0x08000ebd   Thumb Code    18  stm32f10x_usart.o(.text)
    USART_IrDACmd                            0x08000ecf   Thumb Code    24  stm32f10x_usart.o(.text)
    USART_GetFlagStatus                      0x08000ee7   Thumb Code    18  stm32f10x_usart.o(.text)
    USART_ClearFlag                          0x08000ef9   Thumb Code     6  stm32f10x_usart.o(.text)
    USART_GetITStatus                        0x08000eff   Thumb Code    76  stm32f10x_usart.o(.text)
    USART_ClearITPendingBit                  0x08000f4b   Thumb Code    20  stm32f10x_usart.o(.text)
    main                                     0x08000f6d   Thumb Code    94  main.o(.text)
    USART_Print                              0x08000fcb   Thumb Code    14  main.o(.text)
    NMI_Handler                              0x08000fed   Thumb Code     2  stm32f10x_it.o(.text)
    HardFault_Handler                        0x08000fef   Thumb Code     4  stm32f10x_it.o(.text)
    MemManage_Handler                        0x08000ff3   Thumb Code     4  stm32f10x_it.o(.text)
    BusFault_Handler                         0x08000ff7   Thumb Code     4  stm32f10x_it.o(.text)
    UsageFault_Handler                       0x08000ffb   Thumb Code     4  stm32f10x_it.o(.text)
    SVC_Handler                              0x08000fff   Thumb Code     2  stm32f10x_it.o(.text)
    DebugMon_Handler                         0x08001001   Thumb Code     2  stm32f10x_it.o(.text)
    PendSV_Handler                           0x08001003   Thumb Code     2  stm32f10x_it.o(.text)
    SysTick_Handler                          0x08001005   Thumb Code     2  stm32f10x_it.o(.text)
    OLED_WB                                  0x08001009   Thumb Code    28  oled.o(.text)
    LCD_WrDat                                0x08001025   Thumb Code    22  oled.o(.text)
    LCD_WrCmd                                0x0800103b   Thumb Code    22  oled.o(.text)
    LCD_Set_Pos                              0x08001051   Thumb Code    38  oled.o(.text)
    LCD_DLY_ms                               0x08001077   Thumb Code    24  oled.o(.text)
    LCD_Fill                                 0x0800108f   Thumb Code    90  oled.o(.text)
    LCD_CLS                                  0x080010e9   Thumb Code    62  oled.o(.text)
    LCD_Init                                 0x08001127   Thumb Code   174  oled.o(.text)
    GPIO_Configuration                       0x080011dd   Thumb Code    38  config.o(.text)
    USART_Configuration                      0x08001203   Thumb Code   114  config.o(.text)
    SPI_Configuration                        0x08001275   Thumb Code   152  config.o(.text)
    __2printf                                0x08001319   Thumb Code    20  noretval__2printf.o(.text)
    __use_two_region_memory                  0x08001331   Thumb Code     2  heapauxi.o(.text)
    __rt_heap_escrow                         0x08001333   Thumb Code     2  heapauxi.o(.text)
    __rt_heap_expand                         0x08001335   Thumb Code     2  heapauxi.o(.text)
    _printf_char_file                        0x08001339   Thumb Code    32  _printf_char_file.o(.text)
    _printf_char_common                      0x08001367   Thumb Code    32  _printf_char_common.o(.text)
    ferror                                   0x0800138d   Thumb Code     8  ferror.o(.text)
    _initio                                  0x08001395   Thumb Code   210  initio.o(.text)
    _terminateio                             0x08001467   Thumb Code    56  initio.o(.text)
    _sys_open                                0x080014cd   Thumb Code    20  sys_io.o(.text)
    _sys_close                               0x080014e1   Thumb Code    12  sys_io.o(.text)
    _sys_write                               0x080014ed   Thumb Code    16  sys_io.o(.text)
    _sys_read                                0x080014fd   Thumb Code    14  sys_io.o(.text)
    _sys_istty                               0x0800150b   Thumb Code    12  sys_io.o(.text)
    _sys_seek                                0x08001517   Thumb Code    14  sys_io.o(.text)
    _sys_ensure                              0x08001525   Thumb Code     2  sys_io.o(.text)
    _sys_flen                                0x08001527   Thumb Code    12  sys_io.o(.text)
    __user_setup_stackheap                   0x08001533   Thumb Code    74  sys_stackheap_outer.o(.text)
    free                                     0x0800157d   Thumb Code    78  h1_free.o(.text)
    __printf                                 0x080015cb   Thumb Code    38  __printf_nopercent.o(.text)
    __flsbuf                                 0x080015f1   Thumb Code   480  flsbuf.o(.text)
    __flsbuf_byte                            0x080015f1   Thumb Code     0  flsbuf.o(.text)
    __flsbuf_wide                            0x080015f1   Thumb Code     0  flsbuf.o(.text)
    setvbuf                                  0x080017d1   Thumb Code    70  setvbuf.o(.text)
    freopen                                  0x08001819   Thumb Code   158  fopen.o(.text)
    fopen                                    0x080018b7   Thumb Code    74  fopen.o(.text)
    _fclose_internal                         0x08001905   Thumb Code    76  fclose.o(.text)
    fclose                                   0x08001905   Thumb Code     0  fclose.o(.text)
    exit                                     0x08001951   Thumb Code    12  exit.o(.text)
    __rt_SIGRTRED                            0x0800195d   Thumb Code    14  defsig_rtred_outer.o(.text)
    __aeabi_memclr4                          0x0800196b   Thumb Code     0  rt_memclr_w.o(.text)
    __aeabi_memclr8                          0x0800196b   Thumb Code     0  rt_memclr_w.o(.text)
    __rt_memclr_w                            0x0800196b   Thumb Code    78  rt_memclr_w.o(.text)
    _memset_w                                0x0800196f   Thumb Code     0  rt_memclr_w.o(.text)
    __user_libspace                          0x080019b9   Thumb Code     8  libspace.o(.text)
    __user_perproc_libspace                  0x080019b9   Thumb Code     0  libspace.o(.text)
    __user_perthread_libspace                0x080019b9   Thumb Code     0  libspace.o(.text)
    __I$use$semihosting                      0x080019c1   Thumb Code     0  use_no_semi.o(.text)
    __use_no_semihosting_swi                 0x080019c1   Thumb Code     2  use_no_semi.o(.text)
    __semihosting_library_function           0x080019c3   Thumb Code     0  indicate_semi.o(.text)
    __rt_heap_descriptor                     0x080019c5   Thumb Code     8  rt_heap_descriptor_intlibspace.o(.text)
    __use_no_heap                            0x080019cd   Thumb Code     2  hguard.o(.text)
    __heap$guard                             0x080019cf   Thumb Code     2  hguard.o(.text)
    _terminate_user_alloc                    0x080019d1   Thumb Code     2  init_alloc.o(.text)
    _init_user_alloc                         0x080019d3   Thumb Code     2  init_alloc.o(.text)
    __Heap_Full                              0x080019d5   Thumb Code    34  init_alloc.o(.text)
    __Heap_Broken                            0x080019f7   Thumb Code     6  init_alloc.o(.text)
    _init_alloc                              0x080019fd   Thumb Code    94  init_alloc.o(.text)
    malloc                                   0x08001a5b   Thumb Code    94  h1_alloc.o(.text)
    _fseek                                   0x08001ab9   Thumb Code   244  fseek.o(.text)
    fseek                                    0x08001ab9   Thumb Code     0  fseek.o(.text)
    _seterr                                  0x08001bb1   Thumb Code    20  stdio.o(.text)
    _writebuf                                0x08001bc5   Thumb Code    84  stdio.o(.text)
    _fflush                                  0x08001c19   Thumb Code    70  stdio.o(.text)
    _deferredlazyseek                        0x08001c5f   Thumb Code    60  stdio.o(.text)
    __sig_exit                               0x08001ca1   Thumb Code    10  defsig_exit.o(.text)
    __rt_SIGRTRED_inner                      0x08001cad   Thumb Code    14  defsig_rtred_inner.o(.text)
    strlen                                   0x08001ce1   Thumb Code    62  strlen.o(.text)
    _sys_exit                                0x08001d21   Thumb Code     8  sys_exit.o(.text)
    __rt_fp_status_addr                      0x08001d2d   Thumb Code     8  rt_fp_status_addr_intlibspace.o(.text)
    __Heap_Initialize                        0x08001d35   Thumb Code    10  h1_init.o(.text)
    __Heap_DescSize                          0x08001d3f   Thumb Code     4  h1_init.o(.text)
    __Heap_ProvideMemory                     0x08001d43   Thumb Code    52  h1_extend.o(.text)
    _ftell_internal                          0x08001d77   Thumb Code    70  ftell.o(.text)
    ftell                                    0x08001d77   Thumb Code     0  ftell.o(.text)
    __default_signal_display                 0x08001dbd   Thumb Code    50  defsig_general.o(.text)
    __rt_SIGRTMEM                            0x08001def   Thumb Code    14  defsig_rtmem_outer.o(.text)
    _ttywrch                                 0x08001dfd   Thumb Code    14  sys_wrch.o(.text)
    __aeabi_errno_addr                       0x08001e0d   Thumb Code     8  rt_errno_addr_intlibspace.o(.text)
    __errno$intlibspace                      0x08001e0d   Thumb Code     0  rt_errno_addr_intlibspace.o(.text)
    __rt_errno_addr$intlibspace              0x08001e0d   Thumb Code     0  rt_errno_addr_intlibspace.o(.text)
    __rt_SIGRTMEM_inner                      0x08001e15   Thumb Code    22  defsig_rtmem_inner.o(.text)
    fputc                                    0x08001e65   Thumb Code    26  fputc.o(i.fputc)
    _fp_init                                 0x08001e7f   Thumb Code    14  fpinit.o(x$fpl$fpinit)
    __fplib_config_pureend_doubles           0x08001e8b   Thumb Code     0  fpinit.o(x$fpl$fpinit)
    __stdin_name                             0x08001e8c   Data           4  sys_io.o(.constdata)
    __stdout_name                            0x08001e90   Data           4  sys_io.o(.constdata)
    __stderr_name                            0x08001e94   Data           4  sys_io.o(.constdata)
    Region$$Table$$Base                      0x08001e98   Number         0  anon$$obj.o(Region$$Table)
    Region$$Table$$Limit                     0x08001eb8   Number         0  anon$$obj.o(Region$$Table)
    __aeabi_stdin                            0x20000014   Data           4  stdio_streams.o(.data)
    __aeabi_stdout                           0x20000018   Data           4  stdio_streams.o(.data)
    __aeabi_stderr                           0x2000001c   Data           4  stdio_streams.o(.data)
    __stdin                                  0x20000020   Data          80  stdio_streams.o(.bss)
    __stdout                                 0x20000070   Data          80  stdio_streams.o(.bss)
    __stderr                                 0x200000c0   Data          80  stdio_streams.o(.bss)
    __libspace_start                         0x20000110   Data          96  libspace.o(.bss)
    __temporary_stack_top$libspace           0x20000170   Data           0  libspace.o(.bss)



==============================================================================

Memory Map of the image

  Image Entry point : 0x08000131

  Load Region LR_IROM1 (Base: 0x08000000, Size: 0x00001ed8, Max: 0x00080000, ABSOLUTE)

    Execution Region ER_IROM1 (Base: 0x08000000, Size: 0x00001eb8, Max: 0x00080000, ABSOLUTE)

    Base Addr    Size         Type   Attr      Idx    E Section Name        Object

    0x08000000   0x00000130   Data   RO            3    RESET               startup_stm32f10x_hd.o
    0x08000130   0x00000008   Code   RO          462  * !!!main             c_w.l(__main.o)
    0x08000138   0x00000034   Code   RO          810    !!!scatter          c_w.l(__scatter.o)
    0x0800016c   0x0000001a   Code   RO          812    !!handler_copy      c_w.l(__scatter_copy.o)
    0x08000186   0x00000002   PAD
    0x08000188   0x0000001c   Code   RO          814    !!handler_zi        c_w.l(__scatter_zi.o)
    0x080001a4   0x00000006   Code   RO          597    .ARM.Collect$$libinit$$00000000  c_w.l(libinit.o)
    0x080001aa   0x00000008   Code   RO          598    .ARM.Collect$$libinit$$00000001  c_w.l(libinit2.o)
    0x080001b2   0x00000000   Code   RO          600    .ARM.Collect$$libinit$$00000006  c_w.l(libinit2.o)
    0x080001b2   0x00000000   Code   RO          602    .ARM.Collect$$libinit$$00000008  c_w.l(libinit2.o)
    0x080001b2   0x00000000   Code   RO          604    .ARM.Collect$$libinit$$0000000A  c_w.l(libinit2.o)
    0x080001b2   0x00000000   Code   RO          607    .ARM.Collect$$libinit$$0000000D  c_w.l(libinit2.o)
    0x080001b2   0x00000000   Code   RO          609    .ARM.Collect$$libinit$$0000000F  c_w.l(libinit2.o)
    0x080001b2   0x00000000   Code   RO          611    .ARM.Collect$$libinit$$00000011  c_w.l(libinit2.o)
    0x080001b2   0x00000000   Code   RO          613    .ARM.Collect$$libinit$$00000013  c_w.l(libinit2.o)
    0x080001b2   0x00000000   Code   RO          615    .ARM.Collect$$libinit$$00000015  c_w.l(libinit2.o)
    0x080001b2   0x00000000   Code   RO          617    .ARM.Collect$$libinit$$00000017  c_w.l(libinit2.o)
    0x080001b2   0x00000000   Code   RO          619    .ARM.Collect$$libinit$$00000019  c_w.l(libinit2.o)
    0x080001b2   0x00000000   Code   RO          621    .ARM.Collect$$libinit$$0000001B  c_w.l(libinit2.o)
    0x080001b2   0x00000000   Code   RO          623    .ARM.Collect$$libinit$$0000001D  c_w.l(libinit2.o)
    0x080001b2   0x00000000   Code   RO          625    .ARM.Collect$$libinit$$0000001F  c_w.l(libinit2.o)
    0x080001b2   0x00000004   Code   RO          626    .ARM.Collect$$libinit$$00000020  c_w.l(libinit2.o)
    0x080001b6   0x00000000   Code   RO          627    .ARM.Collect$$libinit$$00000021  c_w.l(libinit2.o)
    0x080001b6   0x00000000   Code   RO          631    .ARM.Collect$$libinit$$00000028  c_w.l(libinit2.o)
    0x080001b6   0x00000000   Code   RO          633    .ARM.Collect$$libinit$$0000002A  c_w.l(libinit2.o)
    0x080001b6   0x00000000   Code   RO          635    .ARM.Collect$$libinit$$0000002C  c_w.l(libinit2.o)
    0x080001b6   0x00000000   Code   RO          637    .ARM.Collect$$libinit$$0000002E  c_w.l(libinit2.o)
    0x080001b6   0x00000002   Code   RO          638    .ARM.Collect$$libinit$$0000002F  c_w.l(libinit2.o)
    0x080001b8   0x00000002   Code   RO          789    .ARM.Collect$$libshutdown$$00000000  c_w.l(libshutdown.o)
    0x080001ba   0x00000004   Code   RO          640    .ARM.Collect$$libshutdown$$00000002  c_w.l(libshutdown2.o)
    0x080001be   0x00000000   Code   RO          641    .ARM.Collect$$libshutdown$$00000003  c_w.l(libshutdown2.o)
    0x080001be   0x00000000   Code   RO          644    .ARM.Collect$$libshutdown$$00000006  c_w.l(libshutdown2.o)
    0x080001be   0x00000000   Code   RO          647    .ARM.Collect$$libshutdown$$00000009  c_w.l(libshutdown2.o)
    0x080001be   0x00000000   Code   RO          649    .ARM.Collect$$libshutdown$$0000000B  c_w.l(libshutdown2.o)
    0x080001be   0x00000000   Code   RO          652    .ARM.Collect$$libshutdown$$0000000E  c_w.l(libshutdown2.o)
    0x080001be   0x00000002   Code   RO          653    .ARM.Collect$$libshutdown$$0000000F  c_w.l(libshutdown2.o)
    0x080001c0   0x00000000   Code   RO          464    .ARM.Collect$$rtentry$$00000000  c_w.l(rtentry.o)
    0x080001c0   0x00000000   Code   RO          474    .ARM.Collect$$rtentry$$00000002  c_w.l(rtentry2.o)
    0x080001c0   0x00000006   Code   RO          486    .ARM.Collect$$rtentry$$00000004  c_w.l(rtentry4.o)
    0x080001c6   0x00000000   Code   RO          476    .ARM.Collect$$rtentry$$00000009  c_w.l(rtentry2.o)
    0x080001c6   0x00000004   Code   RO          477    .ARM.Collect$$rtentry$$0000000A  c_w.l(rtentry2.o)
    0x080001ca   0x00000000   Code   RO          479    .ARM.Collect$$rtentry$$0000000C  c_w.l(rtentry2.o)
    0x080001ca   0x00000008   Code   RO          480    .ARM.Collect$$rtentry$$0000000D  c_w.l(rtentry2.o)
    0x080001d2   0x00000002   Code   RO          662    .ARM.Collect$$rtexit$$00000000  c_w.l(rtexit.o)
    0x080001d4   0x00000000   Code   RO          720    .ARM.Collect$$rtexit$$00000002  c_w.l(rtexit2.o)
    0x080001d4   0x00000004   Code   RO          721    .ARM.Collect$$rtexit$$00000003  c_w.l(rtexit2.o)
    0x080001d8   0x00000006   Code   RO          722    .ARM.Collect$$rtexit$$00000004  c_w.l(rtexit2.o)
    0x080001de   0x00000002   PAD
    0x080001e0   0x00000000   Code   RO          731    .emb_text           c_w.l(maybetermalloc1.o)
    0x080001e0   0x00000048   Code   RO            4    .text               startup_stm32f10x_hd.o
    0x08000228   0x0000032c   Code   RO          232    .text               stm32f10x_gpio.o
    0x08000554   0x0000039c   Code   RO          289    .text               stm32f10x_rcc.o
    0x080008f0   0x00000304   Code   RO          333    .text               stm32f10x_spi.o
    0x08000bf4   0x00000378   Code   RO          360    .text               stm32f10x_usart.o
    0x08000f6c   0x00000080   Code   RO          387    .text               main.o
    0x08000fec   0x0000001a   Code   RO          409    .text               stm32f10x_it.o
    0x08001006   0x00000002   PAD
    0x08001008   0x000001d4   Code   RO          424    .text               oled.o
    0x080011dc   0x0000013c   Code   RO          442    .text               config.o
    0x08001318   0x00000018   Code   RO          458    .text               c_w.l(noretval__2printf.o)
    0x08001330   0x00000006   Code   RO          460    .text               c_w.l(heapauxi.o)
    0x08001336   0x00000002   PAD
    0x08001338   0x00000024   Code   RO          465    .text               c_w.l(_printf_char_file.o)
    0x0800135c   0x00000030   Code   RO          488    .text               c_w.l(_printf_char_common.o)
    0x0800138c   0x00000008   Code   RO          490    .text               c_w.l(ferror.o)
    0x08001394   0x00000138   Code   RO          496    .text               c_w.l(initio.o)
    0x080014cc   0x00000066   Code   RO          504    .text               c_w.l(sys_io.o)
    0x08001532   0x0000004a   Code   RO          511    .text               c_w.l(sys_stackheap_outer.o)
    0x0800157c   0x0000004e   Code   RO          515    .text               c_w.l(h1_free.o)
    0x080015ca   0x00000026   Code   RO          569    .text               c_w.l(__printf_nopercent.o)
    0x080015f0   0x000001e0   Code   RO          571    .text               c_w.l(flsbuf.o)
    0x080017d0   0x00000046   Code   RO          573    .text               c_w.l(setvbuf.o)
    0x08001816   0x00000002   PAD
    0x08001818   0x000000ec   Code   RO          576    .text               c_w.l(fopen.o)
    0x08001904   0x0000004c   Code   RO          578    .text               c_w.l(fclose.o)
    0x08001950   0x0000000c   Code   RO          584    .text               c_w.l(exit.o)
    0x0800195c   0x0000000e   Code   RO          586    .text               c_w.l(defsig_rtred_outer.o)
    0x0800196a   0x0000004e   Code   RO          590    .text               c_w.l(rt_memclr_w.o)
    0x080019b8   0x00000008   Code   RO          656    .text               c_w.l(libspace.o)
    0x080019c0   0x00000002   Code   RO          659    .text               c_w.l(use_no_semi.o)
    0x080019c2   0x00000000   Code   RO          661    .text               c_w.l(indicate_semi.o)
    0x080019c2   0x00000002   PAD
    0x080019c4   0x00000008   Code   RO          669    .text               c_w.l(rt_heap_descriptor_intlibspace.o)
    0x080019cc   0x00000004   Code   RO          671    .text               c_w.l(hguard.o)
    0x080019d0   0x0000008a   Code   RO          673    .text               c_w.l(init_alloc.o)
    0x08001a5a   0x0000005e   Code   RO          679    .text               c_w.l(h1_alloc.o)
    0x08001ab8   0x000000f8   Code   RO          695    .text               c_w.l(fseek.o)
    0x08001bb0   0x000000f0   Code   RO          697    .text               c_w.l(stdio.o)
    0x08001ca0   0x0000000a   Code   RO          703    .text               c_w.l(defsig_exit.o)
    0x08001caa   0x00000002   PAD
    0x08001cac   0x00000034   Code   RO          705    .text               c_w.l(defsig_rtred_inner.o)
    0x08001ce0   0x0000003e   Code   RO          709    .text               c_w.l(strlen.o)
    0x08001d1e   0x00000002   PAD
    0x08001d20   0x0000000c   Code   RO          717    .text               c_w.l(sys_exit.o)
    0x08001d2c   0x00000008   Code   RO          729    .text               c_w.l(rt_fp_status_addr_intlibspace.o)
    0x08001d34   0x0000000e   Code   RO          733    .text               c_w.l(h1_init.o)
    0x08001d42   0x00000034   Code   RO          735    .text               c_w.l(h1_extend.o)
    0x08001d76   0x00000046   Code   RO          745    .text               c_w.l(ftell.o)
    0x08001dbc   0x00000032   Code   RO          753    .text               c_w.l(defsig_general.o)
    0x08001dee   0x0000000e   Code   RO          755    .text               c_w.l(defsig_rtmem_outer.o)
    0x08001dfc   0x0000000e   Code   RO          770    .text               c_w.l(sys_wrch.o)
    0x08001e0a   0x00000002   PAD
    0x08001e0c   0x00000008   Code   RO          777    .text               c_w.l(rt_errno_addr_intlibspace.o)
    0x08001e14   0x00000050   Code   RO          783    .text               c_w.l(defsig_rtmem_inner.o)
    0x08001e64   0x0000001a   Code   RO          493    i.fputc             c_w.l(fputc.o)
    0x08001e7e   0x0000000e   Code   RO          715    x$fpl$fpinit        fz_ws.l(fpinit.o)
    0x08001e8c   0x00000004   Data   RO          505    .constdata          c_w.l(sys_io.o)
    0x08001e90   0x00000004   Data   RO          506    .constdata          c_w.l(sys_io.o)
    0x08001e94   0x00000004   Data   RO          507    .constdata          c_w.l(sys_io.o)
    0x08001e98   0x00000020   Data   RO          808    Region$$Table       anon$$obj.o


    Execution Region RW_IRAM1 (Base: 0x20000000, Size: 0x00000370, Max: 0x00010000, ABSOLUTE)

    Base Addr    Size         Type   Attr      Idx    E Section Name        Object

    0x20000000   0x00000014   Data   RW          290    .data               stm32f10x_rcc.o
    0x20000014   0x00000004   Data   RW          470    .data               c_w.l(stdio_streams.o)
    0x20000018   0x00000004   Data   RW          471    .data               c_w.l(stdio_streams.o)
    0x2000001c   0x00000004   Data   RW          472    .data               c_w.l(stdio_streams.o)
    0x20000020   0x00000050   Zero   RW          467    .bss                c_w.l(stdio_streams.o)
    0x20000070   0x00000050   Zero   RW          468    .bss                c_w.l(stdio_streams.o)
    0x200000c0   0x00000050   Zero   RW          469    .bss                c_w.l(stdio_streams.o)
    0x20000110   0x00000060   Zero   RW          657    .bss                c_w.l(libspace.o)
    0x20000170   0x00000000   Zero   RW            2    HEAP                startup_stm32f10x_hd.o
    0x20000170   0x00000200   Zero   RW            1    STACK               startup_stm32f10x_hd.o


==============================================================================

Image component sizes


      Code (inc. data)   RO Data    RW Data    ZI Data      Debug   Object Name

       316         12          0          0          0        971   config.o
         0          0          0          0          0       4184   core_cm3.o
       128         20          0          0          0        503   main.o
       468          8          0          0          0       1759   oled.o
        72         26        304          0        512        828   startup_stm32f10x_hd.o
       812         18          0          0          0       5059   stm32f10x_gpio.o
        26          0          0          0          0       1114   stm32f10x_it.o
       924         44          0         20          0       8620   stm32f10x_rcc.o
       772          4          0          0          0       6226   stm32f10x_spi.o
       888         14          0          0          0       7711   stm32f10x_usart.o
         0          0          0          0          0     226332   system_stm32f10x.o

    ----------------------------------------------------------------------
      4408        146        336         20        512     263307   Object Totals
         0          0         32          0          0          0   (incl. Generated)
         2          0          0          0          0          0   (incl. Padding)

    ----------------------------------------------------------------------

      Code (inc. data)   RO Data    RW Data    ZI Data      Debug   Library Member Name

         8          0          0          0          0         68   __main.o
        38          0          0          0          0         84   __printf_nopercent.o
        52          8          0          0          0          0   __scatter.o
        26          0          0          0          0          0   __scatter_copy.o
        28          0          0          0          0          0   __scatter_zi.o
        48          6          0          0          0         96   _printf_char_common.o
        36          4          0          0          0         80   _printf_char_file.o
        10          0          0          0          0         68   defsig_exit.o
        50          0          0          0          0         88   defsig_general.o
        80         58          0          0          0         76   defsig_rtmem_inner.o
        14          0          0          0          0         80   defsig_rtmem_outer.o
        52         38          0          0          0         76   defsig_rtred_inner.o
        14          0          0          0          0         80   defsig_rtred_outer.o
        12          0          0          0          0         72   exit.o
        76          0          0          0          0         88   fclose.o
         8          0          0          0          0         68   ferror.o
       480          0          0          0          0         88   flsbuf.o
       236          4          0          0          0        128   fopen.o
        26          0          0          0          0         68   fputc.o
       248          4          0          0          0         84   fseek.o
        70          0          0          0          0         76   ftell.o
        94          0          0          0          0         80   h1_alloc.o
        52          0          0          0          0         68   h1_extend.o
        78          0          0          0          0         80   h1_free.o
        14          0          0          0          0         84   h1_init.o
         6          0          0          0          0        152   heapauxi.o
         4          0          0          0          0        136   hguard.o
         0          0          0          0          0          0   indicate_semi.o
       138          0          0          0          0        168   init_alloc.o
       312         46          0          0          0        112   initio.o
         6          0          0          0          0          0   libinit.o
        14          0          0          0          0          0   libinit2.o
         2          0          0          0          0          0   libshutdown.o
         6          0          0          0          0          0   libshutdown2.o
         8          4          0          0         96         68   libspace.o
         0          0          0          0          0          0   maybetermalloc1.o
        24          4          0          0          0         84   noretval__2printf.o
         8          4          0          0          0         68   rt_errno_addr_intlibspace.o
         8          4          0          0          0         68   rt_fp_status_addr_intlibspace.o
         8          4          0          0          0         68   rt_heap_descriptor_intlibspace.o
        78          0          0          0          0         80   rt_memclr_w.o
         0          0          0          0          0          0   rtentry.o
        12          0          0          0          0          0   rtentry2.o
         6          0          0          0          0          0   rtentry4.o
         2          0          0          0          0          0   rtexit.o
        10          0          0          0          0          0   rtexit2.o
        70          0          0          0          0         80   setvbuf.o
       240          6          0          0          0        156   stdio.o
         0          0          0         12        240          0   stdio_streams.o
        62          0          0          0          0         76   strlen.o
        12          4          0          0          0         68   sys_exit.o
       102          0         12          0          0        240   sys_io.o
        74          0          0          0          0         80   sys_stackheap_outer.o
        14          0          0          0          0         76   sys_wrch.o
         2          0          0          0          0         68   use_no_semi.o
        14          0          0          0          0         76   fpinit.o

    ----------------------------------------------------------------------
      3108        198         12         12        336       3704   Library Totals
        16          0          0          0          0          0   (incl. Padding)

    ----------------------------------------------------------------------

      Code (inc. data)   RO Data    RW Data    ZI Data      Debug   Library Name

      3078        198         12         12        336       3628   c_w.l
        14          0          0          0          0         76   fz_ws.l

    ----------------------------------------------------------------------
      3108        198         12         12        336       3704   Library Totals

    ----------------------------------------------------------------------

==============================================================================


      Code (inc. data)   RO Data    RW Data    ZI Data      Debug   

      7516        344        348         32        848     264203   Grand Totals
      7516        344        348         32        848     264203   ELF Image Totals
      7516        344        348         32          0          0   ROM Totals

==============================================================================

    Total RO  Size (Code + RO Data)                 7864 (   7.68kB)
    Total RW  Size (RW Data + ZI Data)               880 (   0.86kB)
    Total ROM Size (Code + RO Data + RW Data)       7896 (   7.71kB)

==============================================================================

